:1000000080312228033008007E14803120007F08D0
:10001000F7000B1F1D282E0099188F1C15287D082E
:100020008A007C080A0080311D2819180F1C1D2821
:100030007B088A007A080A00803177082000FF00D8
:100040007E100900803124287030840085308500BE
:10005000B1308600213087000130FF00DB309E3157
:10006000B9268031C53084009E308500E43086009A
:10007000003087000030FF000C309E31B9268031FF
:100080008C308400233085006430FE000030FF0097
:100090009E31AD268031FA01FB01FC01FD01EA0130
:1000A000EB01EC01ED01EE01EF01C73084000030FF
:1000B00085001D30FE000030FF009E31AD268031EE
:1000C00020308400013085003B30FE000030FF000E
:1000D0009E31AD267E1020008C319D2C20003708EB
:1000E000BA003608B900B60A0319B70A39088400FD
:1000F0003A0885000008BB003B08C6004608031903
:100100006C2B2530200046060319B72834088600DA
:100110003508870042311600010403199E2846085D
:10012000B9003908A000340886003508870042313C
:10013000413F8A00403F0A0080316E282000340889
:10014000860035088700403FB900413FBA003908B2
:1001500086003A0887004608810034088600350882
:1001600087000130810741310318810A6E28C401DC
:10017000C501C301C02843150130B6070030B73DA3
:1001800036088400370885000008303A0319BB2878
:10019000C928360884003708850000089F310827E1
:1001A0008031031CA4292000C401C5010A302000AD
:1001B000A0000030A1004508A3004408A20090312F
:1001C0005420803120002108C5002008C4003608D2
:1001D0008400370885000008D03EB900FF300318BE
:1001E0000030BA003908C4073A08C53D0130B607E7
:1001F0000030B73D360884003708850000089F317D
:1002000008278031031CA429D62820004508400275
:10021000031D0C2944083F02031813293F08C40298
:100220004008C53B1529C401C501FF302000C407A3
:10023000FF30C53D440A0319450A031990293408C3
:10024000860035088700423116000104031937295A
:100250002030B9003908A00034088600350887002E
:100260004231413F8A00403F0A0081311529200078
:100270003408860035088700403FB900413FBA0086
:10028000390886003A08870020308100340886004B
:10029000350887000130810741310318810A15298B
:1002A000340886003508870042311600010403191E
:1002B00070293E08860087010108B9003908A000AE
:1002C00034088600350887004231413F8A00403FAC
:1002D0000A00813101302000B9003908BE07902999
:1002E0003E08860087010108B900340886003508F9
:1002F0008700403FBA00413FBB003A0886003B08F8
:100300008700390881000130B9003908BE07340878
:100310008600350887000130810741310318810AC2
:100320000130BF020030C03B3F0A031D5029400A84
:1003300003196E2850294630B9003908BE00013033
:10034000BF000030C000052920003708BA00360879
:10035000B900B60A0319B70A390884003A088500BB
:100360000008C600003A03196C2B643A0319BC2933
:100370000D3A0319BC299B29200038088600870103
:1003800001088400850102308107003FC100013F60
:10039000C200C21FD4290330B9003908C304C109FF
:1003A000C209C10A0319C20AC601C60A05304606B7
:1003B0000319F9294608B900BA01B935BA0D6130F7
:1003C0003907840098303A3D8500003FBB00013F6B
:1003D000BC003C084202031DEF293B084102031CFC
:1003E000F9290130B9003908C60705304606031D52
:1003F000DA29440845040319052A43080339031977
:10040000052AFF30C407FF30C53D4608B900BA01D0
:10041000B91BBA033A08803ABB004508803A3B0250
:10042000031D142A440839020318212A2000460813
:10043000B900BA01B91BBA033908C4023A08C53B6E
:10044000242A2000C401C501431D952A430803390D
:1004500003195A2A340886003508870042311600ED
:1004600001040319422A2D30B9003908A0003408CC
:100470008600350887004231413F8A00403F0A002C
:1004800082315A2A20003408860035088700403F10
:10049000B900413FBA00390886003A0887002D307C
:1004A000810034088600350887000130810741311A
:1004B0000318810A2000440845040319062B340858
:1004C0008600350887004231160001040319772A97
:1004D0003030B9003908A00034088600350887009C
:1004E0004231413F8A00403F0A0082318F2A20007A
:1004F0003408860035088700403FB900413FBA0004
:10050000390886003A0887003030810034088600B8
:10051000350887000130810741310318810AFF3017
:100520002000C407FF30C53D5B2A44084504031979
:10053000D22A3408860035088700423116000104AB
:100540000319B12A2030B9003908A0003408860008
:10055000350887004231413F8A00403F0A0082311E
:10056000C92A20003408860035088700403FB900BA
:10057000413FBA00390886003A08870020308100E0
:10058000340886003508870001308107413103189F
:10059000810AFF302000C407FF30C53D44084504F0
:1005A000031D992A430803390319062B34088600D2
:1005B000350887004231160001040319EE2A2D3058
:1005C000B9003908A0003408860035088700423198
:1005D000413F8A00403F0A008231062B2000340848
:1005E000860035088700403FB900413FBA0039080E
:1005F00086003A0887002D308100340886003508CF
:1006000087000130810741310318810A2000460824
:10061000B9003908BD00FF302000B9003908BD0716
:100620003D0A03196E280A30AE000030AF003D08C5
:10063000B900BA01B935BA0D613039078400983074
:100640003A3D8500003FA600013FA7004208A900EF
:100650004108A80093314023803120002708B100D1
:100660002608B00092311D22803120002E08303E35
:10067000BB003B08C60034088600350887004231BD
:10068000160001040319532B4608B9003908A000CD
:1006900034088600350887004231413F8A00403FD8
:1006A0000A0083310B2B20003408860035088700B0
:1006B000403FB900413FBA00390886003A08870038
:1006C000460881003408860035088700013081071C
:1006D00041310318810A0B2B2000B401B501080039
:1006E000003400340034003400340034003400346A
:1006F000003400340034003400340034003400345A
:100700000034003400340034003400340034003449
:100710000034003400340034003400340034003439
:100A90000034003400344A3461346E3446346534F2
:100AA00062344D34613472344134703472344D34B4
:100AB000613479344A3475346E344A3475346C3464
:100AC0004134753467345334653470344F3463348F
:100AD00074344E346F3476344434653463340034C3
:100AE0003F344034383440343F3438345434543450
:100AF00054341834003441347F34403400343834B2
:100B0000443444344434283438344434443444344D
:100B100038347C34043478340434783438345434FD
:100B20005434543418340034003400340034003465
:100B3000003400340034003400347F344134413414
:100B400041343E34003444347D3440340034003485
:100B500008347E3409340234003408347E340934D5
:100B600002343C344034403420347C3448345434EF
:100B700054345434243438345434543454341834BD
:100B80007C34083404340434083400340034003431
:100B900000340034003400340034003400340034B5
:100BA00000340034003400340034003400340034A5
:100BB0000034003400340034003400340034003495
:100BC0000034003400340034003400340034003485
:100EA000003400345F34003400340034073400343C
:100EB0000734003414347F3414347F34143424342D
:100EC0002A347F342A3412342334133408346434FB
:100ED00062343634493456342034503400340834C3
:100EE00007340334003400341C34223441340034D9
:100EF0000034413422341C3400342A341C347F340E
:100F00001C342A34083408343E340834083400349D
:100F10000034703430340034083408340834083471
:100F20000834003400346034603400342034103429
:100F30000834043402343E345134493445343E34A8
:100F4000003442347F3440340034723449344934FC
:100F5000493446342134413449344D34333418341F
:100F6000143412347F341034273445344534453436
:100F700039343C344A3449344934313441342134ED
:100F80001134093407343634493449344934363459
:100F900046344934493429341E340034003414347E
:100FA000003400340034403434340034003400342D
:100FB00008341434223441341434143414341434C2
:100FC00014340034413422341434083402340134EB
:100FD0005934093406343E3441345D3459344E3486
:100FE0007C341234113412347C347F344934493423
:100FF000493436343E3441344134413422347F3430
:101000004134413441343E347F34493449344934E5
:1010100041347F3409340934093401343E344134D5
:101020004134513473347F340834083408347F3405
:10103000003441347F34413400342034403441346E
:101040003F3401347F3408341434223441347F3443
:1010500040344034403440347F3402341C34023451
:101060007F347F340434083410347F343E344134C8
:10107000413441343E347F34093409340934063470
:101080003E344134513421345E347F3409341934D0
:10109000293446342634493449344934323403340B
:1010A00001347F34013403343F344034403440341D
:1010B0003F341F342034403420341F343F34403414
:1010C000383440343F3463341434083414346334D3
:1010D00003340434783404340334613459344934E7
:1010E0004D34433400347F3441344134413402348C
:1010F0000434083410342034003441344134413451
:101100007F34043402340134023404344034403433
:10111000403440344034003403340734083400345D
:10112000203454345434383440347F3428344434F4
:10113000443438343834443444344434283438342F
:101140004434443428347F3438345434543454349C
:101150001834003408347E34093402340C345234E8
:1011600052344A343C347F34083404340434783400
:10117000003444347D34403400342034403440342E
:101180003D3400347F341034283444340034003487
:1011900041347F34403400347C34043478340434B3
:1011A00078347C34083404340434783438344434A7
:1011B0004434443438347C341834243424341834DB
:1011C00018342434243418347C347C340834043403
:1011D00004340834483454345434543424340434F7
:1011E00004343F34443424343C34403440342034D8
:1011F0007C341C342034403420341C343C3440349F
:10120000303440343C3444342834103428344434AA
:101210004C345034503450343C34443464345434BA
:101220004C3444340034083436344134003400340F
:101230000034773400340034003441343634083418
:101240000034023401340234043402342000A80093
:10125000A901A90A21004718472947142000A9011C
:101260002808031937292100D001D00A3D2902306E
:101270002000A70027082100D0009D312D258931AD
:101280009D31B7258931031847299E3173262000E7
:10129000290808002000AA01A71F5B29A409A509A5
:1012A000A609A709A40A0319A50A0319A60A03197E
:1012B000A70AAA01AA0AA31F6829A009A109A209CD
:1012C000A309A00A0319A10A0319A20A0319A30A70
:1012D00023082204210420040319A129A901A90A31
:1012E000A31B7E290130A035A10DA20DA30D890BF2
:1012F00073290130A8002808A907702923082702AC
:10130000031D8C2922082602031D8C292108250291
:10131000031D8C2920082402031C96292008A402FE
:101320002108A53B2208A63B2308A73B0130A33692
:10133000A20CA10CA00C890B97290130A902031D56
:101340007E292A080319AF29A409A509A609A70916
:10135000A40A0319A50A0319A60A0319A70A27084C
:10136000A3002608A2002508A1002408A000080068
:1013700064302000A6000030A7002F08A9002E0826
:10138000A80093314023893120002608B2002708A5
:10139000B300B401B501B209B309B409B509B20A81
:1013A0000319B30A0319B40A0319B50A9030A60049
:1013B0000130A7002F08A9002E08A8009331402370
:1013C000893120002608B6002708B700B801B90106
:1013D0002F08BB002E08BA00BB36BA0CBB36BA0CBD
:1013E0003A08BC003B08BD00BE01BF012E08A000AA
:1013F0002F08A100A201A3010030A7000030A60021
:101400000130A5006D30A400923178222000200820
:10141000BC072108BD3D2208BE3D2308BF3D3C0856
:10142000B6073D08B73D3E08B83D3F08B93D360810
:10143000B2073708B33D3808B43D3908B53D350823
:10144000B1003408B0003308AF003208AE00080025
:101450002000B701B80138082B02031D312A3708D4
:101460002A02031C0800B901BA0100303A02053013
:10147000031939020318942A37082607860038080A
:10148000273D87000108E03EA000FF300318003030
:10149000A1000530A2000030A300903154208A3111
:1014A000200039082007B5003A08213DB60036086B
:1014B0008500350884004B3084078730853D00085F
:1014C000AC003808A1003708A0000530A2000030A9
:1014D000A300903154208A31200028082007AD0055
:1014E0002908213DAE0039082D07AF003A082E3DEE
:1014F000B000B130B1002130B2002F083107B30085
:101500003008323DB40033088600340887002C08C8
:1015100081000130B9070030BA3D00303A02053091
:1015200003193902031C3C2A0130B7070030B83DCB
:101530002B2A2000191002302000A3004530A20001
:10154000A930890BA12AA20BA12AA30BA12A003240
:101550002000191402302000A3004530A200A93059
:10156000890BB02AA20BB02AA30BB02A0032AE30EE
:101570009E3120268A31D5309E3120268A31803016
:101580009E3120268A31A8309E3120268A3127308C
:101590009E3120268A31A1309E3120268A31C830E2
:1015A0009E3120268A3140309E3120268A31D33028
:1015B0009E3120268A31A4309E3120268A318D30FA
:1015C0009E3120268A3114309E3120268A31DA302D
:1015D0009E3120268A3112309E3120268A31813078
:1015E0009E3120268A31AF309E3120268A31D93073
:1015F0009E3120268A3125309E3120268A31DB30EB
:101600009E3120268A3120309E3120268A31A43016
:101610009E3120268A31A6309E3120268A31AF3075
:101620009E312026080020005308A0000130A100B0
:101630000030A200A3000130A4000030A5009031CA
:1016400020208B314C3094319E248B312000D000EF
:101650005008D3006430A0000030A10053080A3EB7
:10166000860001308700403FA200413FA300953132
:1016700029258B3120002008D0005008D200B3016A
:101680005208D0005008B40006309331E5238B3166
:10169000D0302000D0005008B3005308083E860028
:1016A000013087000108013ED1005108B400053027
:1016B0009331E5238B312000B301530886000130BC
:1016C00087000130463FB40004309331E5238B316D
:1016D0002000B30153088600013087000130423FEB
:1016E000B40001309331E5238B3180302000D000ED
:1016F0005008B30053088600013087000108D1006C
:101700005108B40000309331E5238B312000B30140
:1017100053088600013087000130443FB400023096
:101720009331E52308002000AA01A31FA42BA009E0
:10173000A109A209A309A00A0319A10A0319A20A6F
:101740000319A30AAA01AA0AA71FB52BA409A50970
:10175000A609A709A40A0319A50A0319A60A0319C9
:10176000A70A0130A8002808AA060030AE00003001
:10177000AD000030AC000030AB002308220421048F
:1017800020040319FE2BA901A90AA31BD32B0130A6
:10179000A035A10DA20DA30D890BC82B0130A80007
:1017A0002808A907C52B0130AB35AC0DAD0DAE0D2A
:1017B000890BD42B23082702031DE82B22082602BD
:1017C000031DE82B21082502031DE82B2008240215
:1017D000031CF32B2008A4022108A53B2208A63BEA
:1017E0002308A73B2B140130A336A20CA10CA00C9C
:1017F000890BF42B0130A902031DD32B2A080319EE
:101800000C2CAB09AC09AD09AE09AB0A0319AC0A43
:101810000319AD0A0319AE0A2E08A3002D08A20071
:101820002C08A1002B08A0000800A0302000A00078
:101830000030A1000030A200A3001230A40000304C
:10184000A500903120208C31FF302000E300630898
:10185000B30006309031EB208C31643E2100AA00A9
:10186000003003180130AB001F302000E300630894
:10187000B30005309031EB208C31FF3E2100A800F1
:10188000FF3003180030A9003F302000E300630858
:10189000B30004309031EB208C312000E400E501EE
:1018A00064082100A600200065082100A7003F3041
:1018B0002000E3006308B30002309031EB208C314C
:1018C0002000E400E50164082100A4002000650870
:1018D0002100A5007F302000E3006308B300013041
:1018E0009031EB208C312000E400E50164082100F8
:1018F000A200200065082100A3007F302000E30043
:101900006308B30000309031EB208C312000E400FC
:10191000E50164082100A000200065082100A10065
:10192000A0308D318D2520005308E2005208E100DF
:101930005108E0005008DF0008009E31F9268C3184
:101940008A3199228C31E430860000308700B23031
:101950008400003085000C302000E60016001A00DC
:10196000E60BAE2CB230DD000030DE009231DA2220
:101970008C3102302000E7004530E600A930890BA9
:10198000BF2CE60BBF2CE70BBF2C00322100420816
:101990002000A0000130A1000030A200A30001300F
:1019A000A4000030A500903120208C315930210056
:1019B000C100A330C0003C30BF004430BE00003046
:1019C000C6000030C5000030C4000030C300210054
:1019D00041082000CF00210040082000CE00210057
:1019E0003F082000CD0021003E082000CC008B31B4
:1019F00013238C3107302000E6007D30890BFE2C4C
:101A0000E60BFE2C8C3115248C312000620821005D
:101A1000C600200061082100C500200060082100E8
:101A2000C40020005F082100C300C33094319E240D
:101A30008C312000E60066082100C200B230200090
:101A4000C7000030C8002030C9009830CA0021000B
:101A500042080A3E860001308700403F2000E60031
:101A6000413FE70066086C3ECB000730673DCC0085
:101A700021004208083E860001308700403F2000D8
:101A8000E800413FE9006808013ECD000030693DB3
:101A9000CE0021004208063E860001308700403F0C
:101AA0002000CF00413FD00021004208043E8600C4
:101AB00001308700403F2000D100413FD20021008B
:101AC0004208023E860001308700403F2000D300DC
:101AD000413FD40021004208860001308700403F8A
:101AE0002000D500413FD6009031CB208C31B23060
:101AF0002000DD000030DE009231DA228C3102302D
:101B00002000E7004530E600A930890B852DE60B63
:101B1000852DE70B852D0032022D2000DE005E08AA
:101B20000A3E86008701403FD400413FD50055085A
:101B3000803AD60080305602031DA02D4630540254
:101B4000031CB62D20005E080A3E86008701403F38
:101B5000D400413FD5005508803AD6008030560267
:101B6000031DB42D8B305402031CBF2DFF30200009
:101B7000DD00FF30DC00FF30DB00FF30A42E200052
:101B80005E080A3E86008701403FD400413FD500F1
:101B900054086C3EC0000730553DC1005E08083E49
:101BA00086008701403FD600413FD7005608013EDE
:101BB000C2000030573DC3005E08063E8600870124
:101BC000403FC400413FC5009631F7268D312000CB
:101BD0004308DD004208DC004108DB004008DA0071
:101BE000B230C0000730C1000130C2000030C30075
:101BF0000130C4000030C5009631F7268D31200039
:101C00004008DA024108DB3B4208DC3B4308DD3B8D
:101C10005E08043E86008701403FD400413FD50066
:101C20005408D6005508D7000030D71BFF30D80025
:101C3000D9005D08A3005C08A2005B08A1005A0857
:101C4000A0000030A7000030A6000030A50018302A
:101C5000A400923178228D3120002008D607210877
:101C6000D73D2208D83D2308D93D5908DD00580842
:101C7000DC005708DB005608DA005E08023E8600EA
:101C80008701403FD400413FD5005408D600550895
:101C9000D7000030D71BFF30D800D9005D08A30063
:101CA0005C08A2005B08A1005A08A0000030A70051
:101CB0000030A6000030A5003C30A400923178220C
:101CC0008D3120002008D6072108D73D2208D83DB5
:101CD0002308D93D5908DD005808DC005708DB000F
:101CE0005608DA005E0886008701403FD400413F75
:101CF000D5005408D6005508D7000030D71BFF3058
:101D0000D800D9005D08A3005C08A2005B08A10010
:101D10005A08A0000030A7000030A6000030A5003F
:101D20003C30A4009231782220002008D6072108F8
:101D3000D73D2208D83D2308D93D5908DD00580871
:101D4000DC005708DB005608DA005D08D3005C08A9
:101D5000D2005B08D1005A08D00008002000BA0069
:101D60003A0886008701403FBB00413FBC00423F2C
:101D7000BD00433FBE000030A3000030A200003091
:101D8000A1003C30A0003E08A7003D08A6003C088A
:101D9000A5003B08A40089314A218E31200021088A
:101DA0002200CA00200020082200C90000302000C4
:101DB000A3000030A2000030A1003C30A0003E088B
:101DC000A7003D08A6003C08A5003B08A4008B31F5
:101DD00093238E3120002308BE002208BD00210875
:101DE000BC002008BB000030A3000030A20000307F
:101DF000A1003C30A0003E08A7003D08A6003C081A
:101E0000A5003B08A40089314A218E312000210819
:101E10002200CC00200020082200CB00003020004F
:101E2000A3000030A2000030A1003C30A0003E081A
:101E3000A7003D08A6003C08A5003B08A4008B3184
:101E400093238E3120002308BE002208BD00210804
:101E5000BC002008BB000030A3000030A20000300E
:101E6000A1001830A0003E08A7003D08A6003C08CD
:101E7000A5003B08A40089314A218E3120002108A9
:101E80002200CE00200020082200CD0000302000DB
:101E9000A3000030A2000030A1001830A0003E08CE
:101EA000A7003D08A6003C08A5003B08A4008B3114
:101EB00093238E31200021082200D000200020082A
:101EC0002200CF0007302000A0000030A100220037
:101ED0004F08043E2000A20000302200503D2000A8
:101EE000A300953129258E31200021082200D6003B
:101EF000200020082200D5004630D3000030D40056
:101F000054082000B500220053082000B40093318B
:101F100075238E3122005008803A2000B800350821
:101F2000803A3802031D972F340822004F02031C09
:101F3000B12F220054082000B500220053082000D1
:101F4000B400933175238E31200034082200CF0273
:101F5000200035082200D03B0130D3070030D43DAB
:101F6000802F220054082000B500220053082000D2
:101F7000B400933175238E31200034080239B80043
:101F80003808BB0022005008D8004F08D700D10104
:101F9000D201220052088500510884005530840780
:101FA0009830853D000820003B04B8003808BC008C
:101FB00022005008803A2000B90080303902031D09
:101FC000E42F3C0822004F02031CF92F20003C089C
:101FD000B800B90138082200CF02200039082200D9
:101FE000D03B0130D1070030D23D03102000BB0CA4
:101FF000C92F01302200CF070030D03D4930080002
:102000007E1C04289D31742D21004710D1010E3013
:1020100008002000A3002030A2002208A307230804
:10202000A2000430A236890B1228220810389E31F3
:1020300020269031200023080F399E3120260800E9
:1020400020002108A7002008A6000130A4020030CB
:10205000A53B240A0319250A03190800260886004F
:1020600027088700220881000130A6070030A73D1D
:1020700025282000A101A10A210047185128C710D6
:10208000FF302000A00020082100C8009D31272536
:1020900090319D312A25210051082000A000200800
:1020A000A1002000210808002000A401A501201C97
:1020B0005D282208A4072308A53D0130A235A30D01
:1020C000890B5E280130A136A00C890B63282008FB
:1020D0002104031D57282508A1002408A00008009A
:1020E0007E1C74289F31E92F200029088600870173
:1020F000403FA000413FA1002908023E8600870121
:1021000001089F317C27903100302000A500A600F7
:10211000A7019E31D1260230080020002108A50029
:102120002008A40024088600250887000108031958
:102130009E280130A4070030A53D92282009A20066
:102140002109A300A20A0319A30A24082207A00058
:102150002508233DA100080064302000A6000030BF
:10216000A7002F08A1002E08A000F130A2000B301C
:10217000A30090315420903120002008413EA80057
:10218000F430213DA9009331402320002708AF00FF
:102190002608AE00080020004808DA004708D900E9
:1021A000DB01DC014B30D7005708D8005930B400B0
:1021B0000030B5004A08B7004908B6005830D700CB
:1021C0005708B80080316E202000590886005A0850
:1021D0008700810108002000B70037089E313E26A5
:1021E000903120003305B4003408B8000F303805B2
:1021F000B4000A30B5003508A00033083805B60031
:102200000430B636890B012936080F399F3157271C
:102210002000340708002100C7110230F0007008C8
:10222000D10018299D314F2508009D315325080004
:1022300021006008F0007008F9000F30C73E8600EA
:102240008701413F8A00403F0A009131023A031959
:102250001229013A0319122915290800F4007008FF
:102260007104031944297435D23E86008701700831
:10227000C03F7108C13F7208F3007408DE3E86005B
:1022800087017308810008007435D23E86008701FB
:102290008530C03F1D30C13F7408DE3E8600870197
:1022A000810108002000A4002008210403196929E5
:1022B0002435D23E860087012008C03F2108C13F57
:1022C0002208A3002408DE3E86008701230881003F
:1022D00008002435D23E860087018530C03F1D307E
:1022E000C13F2408DE3E86008701810108009D3140
:1022F000242591312100C71D87299D31BE259131AB
:10230000031C87290F30F40074082100D00021003D
:102310005008F400F501F435F50D00307407840021
:102320009830753D8500013F8A00003F0A009131D9
:10233000F60076082100D000080021004715AA29E0
:102340009D314F2508009D312125033008009D3126
:102350005325080021005E08F0007008F9000B30DA
:10236000C73E86008701413F8A00403F0A00913105
:10237000013A0319A729033A0319A029013A0319BD
:10238000A029073A0319A329A72908007E1CCA29F6
:1023900091310B292100C71102302000A000200834
:1023A0002100D100D9299D31E62508009D31EE2577
:1023B0000800210060082000A0002008A9000F30BC
:1023C000C73E86008701413F8A00403F0A009131A5
:1023D000023A0319D329013A0319D329D62908004F
:1023E0007E1CF429913177299D31272591312100D7
:1023F000C71D052A9E3117269131031C052A0F306F
:102400002000A40024082100D00021005008200052
:10241000A400A501A435A50D003024078400983040
:10242000253D8500013F8A00003F0A0092312000CF
:10243000A60026082100D000080020002E082F0446
:102440000319452AB301B30AAF1B302A0130AE3558
:10245000AF0D890B272A0130B2003208B307242AB6
:102460002F083102031D362A2E083002031C3C2A95
:102470002E08B0022F08B13B0130AF36AE0C890BED
:102480003D2A0130B302031D302A3108AF00300865
:10249000AE0008007E1C4E2A91319D29210047156F
:1024A0005B2A9D31E62508009D313C25033008005C
:1024B0009D31EE25080021005E082000A0002008C4
:1024C000A9000B30C73E86008701413F8A00403F8C
:1024D0000A009231013A0319582A033A0319512A82
:1024E000013A0319512A073A0319542A582A0800B5
:1024F00000302000AB000030AA000030A9000030FE
:10250000A800201C8B2A2408A8072508A93D260816
:10251000AA3D2708AB3D0130A435A50DA60DA70D9A
:10252000890B8C2A0130A336A20CA10CA00C890BBC
:10253000932A2308220421042004031D812A2B0846
:10254000A3002A08A2002908A1002808A00008006A
:102550002000AD0020002D089531B9259231003AB8
:102560000319AA2AA7302000A5001F30A6002B308F
:10257000AC002C08A7009E31D126923101302000FA
:10258000A0000030A1002A309F317C279231913089
:102590002000A5001D30A600A7019E31DE26923145
:1025A0009D316B259231903139209231013A031DD2
:1025B0000800D32A9731A727923120005E08A10096
:1025C0005D08A00090318D20923120002108E000AC
:1025D0002008DF008C30C7002330C8005E08CA0026
:1025E0005D08C9009031CB2092318C302000A600CC
:1025F0002330A7000030A800A9006008AB005F08E6
:10260000AA008A3128229231B1302000A400213062
:10261000A5009331AC2308002000B801B80A90301F
:10262000AE000130AF003508B1003408B00092317F
:102630001D22933120002E082F040319382B03305C
:102640003405B60000303505B70036083704031DE1
:10265000372B6430AE000030AF003508B1003408CD
:10266000B00092311D2220002E082F040319B8015A
:102670003808B600B7013608B4003708B5000800BE
:102680002000AB01AC01260827040319702BAD0113
:10269000AD0AA71B552B0130A635A70D890B4C2B76
:1026A0000130AA002A08AD07492B0130AB35AC0D2B
:1026B000890B562B27082902031D602B26082802A8
:1026C000031C672B2608A8022708A93B2B140130FE
:1026D000A736A60C890B682B0130AD02031D552BC4
:1026E0002C08A7002B08A6000800033020003405A2
:1026F000B60000303505B70036083704031DA22B9D
:102700006430AE000030AF003508B1003408B000CE
:1027100092311D22933120002E082F04031DA72B78
:102720009030AE000130AF0034082C3EB0000130D4
:10273000353DB10092311D22933120002E082F0427
:102740000319A72B6D30B4000130B50008006E30BE
:10275000B4000130B50008002000A801A901003034
:1027600029020530031928020318080028089E31A1
:102770007E26933100309031092093312000A6014C
:10278000A701003027026030031926020318E02B4E
:10279000240884002508850000089E3148269331CE
:1027A00001302000A4070030A53D0130A60700300D
:1027B000A73D00302702603003192602031CC82BF6
:1027C0000130A8070030A93DAF2B2000BC003C0819
:1027D0009E313E26933120003305B5003508BB00FD
:1027E0000A30A0000030A1003408B500B601350859
:1027F000A2003608A3009631A526933120002008B8
:10280000B7000430B735890B022C0A30A000003025
:10281000A1003408B800B9013808A2003908A300A3
:102820009531292593312000200837043B04BA0054
:102830003A08AE003C089F31692708009D311E25EB
:102840009431F0002100490886008701700881005A
:102850000130F0007008C9070130CA020030CB3BDC
:102860004A084B040319382C9D313F2505300800D8
:102870004715402C9D315F2508009D315B250800E0
:1028800021005E08F0007008F9000B30C73E86009A
:102890008701413F8A00403F0A009431013A031901
:1028A0003D2C033A03193A2C013A03193A2C073A02
:1028B00003193D2C3D2C080020009A019901083095
:1028C00096009701980107309500F7309100F53098
:1028D0009200FB309300FE309400FE303E00D900A1
:1028E000C330CE00E130C3000730E400F730B80059
:1028F000DA01E501C401B901CF01E601BA01C50160
:10290000D001DB013D004508E0391338C500460819
:10291000E0391438C60016303E0099001430A30088
:102920001530A40017309B003D004808E0390938F5
:10293000C8004908E0390A38C90008002000CB0067
:102940004B0886008701403FBF00413FC000423F27
:10295000C100433FC2006E08A0006F08A100890DAE
:10296000893B8909A200A3000030A7000030A6001F
:102970000030A5003C30A400923178229431200030
:102980002009C3002109C4002209C5002309C6008B
:10299000C30A0319C40A0319C50A0319C60A43085E
:1029A000BF074408C03D4508C13D4608C23D420836
:1029B000CA004108C9004008C8003F08C7004730A6
:1029C0008E31AE2608007E1CE72C94311E2C9D31E2
:1029D000392594312000A000210049088600870194
:1029E0002000200881000130A00020082100C90734
:1029F0000130CA020030CB3B4A084B040319042DB6
:102A00009D3163250530080047150C2D9E310626A3
:102A100008009D31FE25080021005E082000A0006E
:102A20002008A9000B30C73E86008701413F8A007D
:102A3000403F0A009531013A0319092D033A031961
:102A4000062D013A0319062D073A0319092D092D00
:102A500008002000A601A31F342DA209A309A20A81
:102A60000319A30AA601A60AA11F3B2DA009A109CB
:102A7000A00A0319A10A200821040319622DA50147
:102A8000A50AA11B4D2D0130A035A10D890B442DA8
:102A90000130A4002408A507412D21082302031DAD
:102AA000532D20082202031C592D2008A2022108C0
:102AB000A33B0130A136A00C890B5A2D0130A50291
:102AC000031D4D2D260803196A2DA209A309A20A88
:102AD0000319A30A2308A1002208A00008009D31C1
:102AE000BE25953103187E2D9A2D9D31472508006E
:102AF0009D314B2508009D315325080021006108B8
:102B0000F1007108F9001130C73E86008701413F8E
:102B10008A00403F0A009531013A03197B2D033AA0
:102B20000319752D013A0319782D073A03197B2DE6
:102B30007B2D08002100C7110230C73E86008701A7
:102B4000403F84008501810A00089D316F25953141
:102B500001302100CA020030CB3B4A084B04031D60
:102B6000B32D0630B42D0330F2000030F3007208AC
:102B700008002000A300A401A40A2100C718042E05
:102B800020002308A20022082100C8004710C71413
:102B9000C7110E302000A20022082100D000F4301E
:102BA000CE000130CF0047158530D2001D30D30054
:102BB000DE018530D4001D30D500DF018530D60020
:102BC0001D30D700E0018530D8001D30D900E1016B
:102BD0008B30DA001D30DB00E2019E313426953166
:102BE0009D312725953112302000A0001D30A10015
:102BF0009D319D259531F0302000A0001130A100BD
:102C00009D31A3252000A4012000240808002000F5
:102C1000AC002A30AB002B08B0000230AE00003010
:102C2000AF002E082F040319532E20002C089531D5
:102C3000B9259631003A0319152EBD302000A500A4
:102C40001F30A6003030AB002B08A7009E31D126E4
:102C5000963101302000A0000030A1002A309F31C1
:102C60007C27963191302000A5001D30A600A701D9
:102C70009E31DE2696319D316B259631903139207B
:102C800096312000AB002B08AD002D0303193E2E1A
:102C90002D080319532EFF30AE07FF30AF3D2E082D
:102CA0002F04031D152E300808007E1C592E953167
:102CB0006F2D9E31172696310318682E852E9D3173
:102CC000D62508009D31DE2508009D31EE2508003F
:102CD000210061082000A1002108A9001130C73E91
:102CE00086008701413F8A00403F0A009631013A41
:102CF0000319652E033A03195F2E013A0319622E58
:102D0000073A0319652E652E08002100C71102300D
:102D1000C73E86008701403F84008501810A000884
:102D20009D319725963101302100CA020030CB3BFE
:102D30004A084B04031D9E2E06309F2E03302000B0
:102D4000A2000030A300220808002000A601A11F55
:102D5000B02EA009A109A00A0319A10AA601A60A7A
:102D6000A31FBB2EA209A309A20A0319A30A0130BB
:102D7000A4002408A606A701A8012008210403191D
:102D8000EA2EA501A50AA11BCF2E0130A035A10D69
:102D9000890BC62E0130A4002408A507C32E0130DC
:102DA000A735A80D890BD02E21082302031DDA2E8A
:102DB00020082202031CE12E2008A2022108A33BC6
:102DC00027140130A136A00C890BE22E0130A50298
:102DD000031DCF2E26080319F22EA709A809A70A5A
:102DE0000319A80A2808A1002708A000080020004D
:102DF0004308AF004208AE009031AC20963120006D
:102E000044082E07CC0045082F3DCD00CE01CF0150
:102E100000304302033003194202031C322F4108E1
:102E2000B5004008B40093310C23963120003408DB
:102E30003504031D1D2F02301E2F0130CA00003043
:102E4000CB004A08C6004B08C7000030C71BFF3044
:102E5000C800C9004608CC024708CD3B4808CE3B15
:102E60004908CF3B0130C0020030C13B4108AF00F0
:102E70004008AE008931B82120002E08CC072F0869
:102E8000CD3D3008CE3D3108CF3D4F08C3004E0840
:102E9000C2004D08C1004C08C00008002000B50168
:102EA00003309E313E26973107392000B300B4012C
:102EB00033082200AC00200034082200AD002C08AA
:102EC00008382000B3003308AE0003309F31692773
:102ED000973100309E313E2697312000B300B40177
:102EE00033082200A000200034082200A100403056
:102EF0002000B3003308AE0007309F3169279731B7
:102F00002200200880382000B3003308AE000030D3
:102F10009F316927973120003508031D9C2F03300E
:102F20009E313E2697312000B3003308B500203093
:102F3000B3003308B5058B2F22002C080838200079
:102F4000B3003308AE0003309F316927080020002A
:102F5000AF0105302F020318D02F2F089E317E2697
:102F6000973100309031092097312000AC0160305A
:102F70002C020318C82F00309E31482697310130AB
:102F80002000AA002A08AC0760302C02031CBB2FCB
:102F90000130AA002A08AF0705302F02031CAD2F0D
:102FA000AD01AE012E08803AAA0081302A02031D2D
:102FB000DB2F90302D020318F82FB1302000AA002B
:102FC0002130AB002D082A0786002E082B3D8700F4
:102FD00081010130AD070030AE3D2E08803AAA00D5
:102FE00081302A02031DF62F90302D02031CDD2FA5
:102FF00070302000A4008330A5009331AC2308007A
:1030000000341034A1341E345D341E34553416346B
:10301000E33414342A341E344A341234D6341D3482
:10302000DE341D34E6341D34EE341D34F6341D34E4
:10303000FE341D3406341E3452341E34C63411346A
:1030400025343034343464342D342534303432343F
:1030500064342D342534303432346434203425340F
:103060003034323464343A342534303432346434D5
:103070003A3425343034323464340A34003453342E
:1030800075346E344D346F346E3454347534653465
:103090005734653464345434683475344634723487
:1030A000693453346134743400341F341C341F3495
:1030B0001E341F341E341F341F341E341F341E347C
:1030C0001F34013400340A34003464340034E834EA
:0630D00003341034273424
:103A100008000800080001300800053008002E00EA
:103A20008F1008009D310F25080023009114080015
:103A300023001115080023009115080023000C082D
:103A400008002E000F1408002E000F1008002E0092
:103A50000F1008002E001910080023001114080090
:103A6000230091140800230011150800230091156C
:103A7000080023000C0808002E000F140800230083
:103A800091121116080023009116111608009D319D
:103A90001525013008009D311525023008009D31A3
:103AA0001525013008009D311825003008009D3192
:103AB0003F25053008009D3143250A3008009D311F
:103AC0004325093008002300911211160800230035
:103AD0009116111608000030893126210800F000E7
:103AE000700823008C00080021004710D1010E301F
:103AF00008002100C7119D311B2504300800230058
:103B0000990130309A00970108007E1C892D9D3163
:103B10000B2D013008007E1C8F2D9D310D2D0530A1
:103B200008007E1C952D80310228033008002000FB
:103B3000A000200823008C00080020002108FD00C0
:103B40002008FC00080020002108FB002008FA00E3
:103B500008009D31082521004710D1010E300800D2
:103B60002100C71548359D316F25033008002E0010
:103B7000190801392000A000200C08002300110EB4
:103B8000890C890C0139F000700C08002100C71560
:103B90000314480D9D316F25053008002F00960154
:103BA0009701980199019A019B0108007E1CDA2D6A
:103BB0009D31472D9D313025013008007E1CE22DBE
:103BC0009D314B2D9D313025023008007E1CEA2DA1
:103BD0009D314F2D9D313025013008007E1CF22D86
:103BE0009D31532D9D313325003008007E1CFA2D68
:103BF0009D31572D9D316325053008007E1C022E16
:103C00009D315B2D9D3167250A3008007E1C0A2EF0
:103C10009D315F2D9D3167250930080062303100EC
:103C20008D008F0191010230930092010800230062
:103C3000110E890C890C01392000A000200C08000D
:103C40002000A1009611181121089E319526200010
:103C5000961508007E1C2E2E9D31792D2100C7114E
:103C60009D313625043008002300901A08008F018A
:103C700028309000910103308D0008002000B20030
:103C80003208B1003108AA006F30963107260800CB
:103C90002000A1009611181521089E3195262000BC
:103CA000961508007E1C562E9D31A92D9D310925A3
:103CB00021004710D1010E3008007E1C612E9D317D
:103CC000B02D2100C71548359D31972503300800D8
:103CD0002E000F1808002E000F1808000830890B5E
:103CE0006F2E00006B2E2100471C080000309E3113
:103CF00068269E319131F0219E31732E2000A30061
:103D00002308B038A2002208A30023089E312026F1
:103D100008007608F1007508F0007708F8007808C8
:103D2000F200003091312E2108002000A000230075
:103D30009A132000200823009600191C9D2E1608B7
:103D400008007E1CA52E9D31C62D2100C715031429
:103D5000480D9D3197250530080064008001013130
:103D60000130FE020030FF3B7F087E04031900345F
:103D7000AE2EFE0012001E000130FE020030FF3B9E
:103D80007F087E0403190034BA2E41346C34613448
:103D900072346D34203443346C346F3463346B3498
:103DA000003420002608A1002508A0002708A8004C
:103DB0002808A20000309131522108002000260876
:103DC000A1002508A0002708A8002808A2000230AA
:103DD000913152210800F3002100471D08007308AB
:103DE000F2007208C9007108CB007008CA004711C0
:103DF00008009D31CE259E3194315C249E319E3148
:103E00000E269E319D317F259E3197314E27080029
:103E10002000A100A0013A3021020318152F3030F4
:103E20002102031C152FA001A00A200C080002305B
:103E3000F0000030F10079089E31EB269F31003010
:103E4000F500F600F7019E318926043008000130A4
:103E5000F0000030F10079089E31EB269F310030F0
:103E6000F500F600F7019E31892604300800013084
:103E7000F0000030F10079089E31EB269F310030D0
:103E8000F500F600F7019E31892602300800023065
:103E9000F0000030F10079089E31EB269F310030B0
:103EA000F500F600F7019E31892602300800200057
:103EB000A300A201231C602F2008A1002108A20753
:103EC0000310A00D0310A30C2308031D5A2F220872
:103ED00008002000B1003108AF002F08AA002E080A
:103EE000B0003008AB006F309231A8229F31FA3019
:103EF0000032890B782F08002000A3002100471D05
:103F0000080020002308A20022082100C900200088
:103F100021082100CB00200020082100CA00471101
:103F200008007E1C952F9F31172F02302000A00023
:103F30000030A10029089F317C279F3100302000EC
:103F4000A500A600A7019E31D126043008007E1CE2
:103F5000AB2F9F31272F01302000A0000030A1009F
:103F600029089F317C279F3100302000A500A60042
:103F7000A7019E31D126043008007E1CC12F9F313D
:103F8000372F01302000A0000030A10029089F3108
:103F90007C279F3100302000A500A600A7019E319C
:103FA000D126023008007E1CD72F9F31472F0230C8
:103FB0002000A0000030A10029089F317C279F31FC
:103FC00000302000A500A600A7019E31D1260230B6
:103FD0000800790886008701403FF000413FF1006A
:103FE0007908023E8600870101089E31EB269F3149
:103FF0000030F500F600F7019E31892602300800F6
:020000040001F9
:0A000E00EC3FFF3F9F3FFF3FFF3F25
:00000001FF
