:1000000080312228033008007E14803120007F08D0
:10001000F7000B1F1D282E0099188F1C15287D082E
:100020008A007C080A0080311D2819180F1C1D2821
:100030007B088A007A080A00803177082000FF00D8
:100040007E100900803124285C30840082308500D5
:10005000B1308600213087000130FF00DB30903165
:10006000CD2080318C308400233085006430FE0048
:100070000030FF009031C1208031F801F901FA0110
:10008000FB01FC01FD01A03084000030850033300D
:10009000FE000030FF009031C1208031203084000C
:1000A000013085002930FE000030FF009031C12072
:1000B0007E1020008C31852C003400340034003454
:1000C0000034003400340034003400340034003490
:1000D0000034003400340034003400340034003480
:1000E0000034003400340034003400340034003470
:1000F0000034003400340034003400340034003460
:1004600000340034003400340034003400344A34A2
:1004700061346E344634653462344D3461347234E0
:100480004134703472344D34613479344A347534C3
:100490006E344A3475346C344134753467345334B3
:1004A000653470344F34633474344E346F3476347E
:1004B00044346534633400343F3440343834403499
:1004C0003F343834543454345434183400344134C0
:1004D0007F34403400343834443444344434283491
:1004E000383444344434443438347C340434783438
:1004F0000434783438345434543454341834003494
:10050000003400340034003400340034003400344B
:1005100000347F344134413441343E340034443477
:100520007D3440340034003408347E3409340234DD
:10053000003408347E34093402343C3440344034CE
:1005400020347C34483454345434543424343834CF
:1005500054345434543418347C340834043404345B
:1005600008340034003400340034003400340034E3
:1005700000340034003400340034003400340034DB
:1005800000340034003400340034003400340034CB
:1005900000340034003400340034003400340034BB
:1005A00000340034003400340034003400340034AB
:100870000034003400340034003400345F34003479
:1008800000340034073400340734003414347F3427
:1008900014347F34143424342A347F342A34123408
:1008A00023341334083464346234363449345634CF
:1008B0002034503400340834073403340034003416
:1008C0001C342234413400340034413422341C348A
:1008D00000342A341C347F341C342A34083408345D
:1008E0003E3408340834003400347034303400347A
:1008F00008340834083408340834003400346034D0
:1009000060340034203410340834043402343E346B
:100910005134493445343E34003442347F34403419
:100920000034723449344934493446342134413432
:1009300049344D3433341834143412347F34103481
:10094000273445344534453439343C344A34493409
:1009500049343134413421341134093407343634C4
:1009600049344934493436344634493449342934D5
:100970001E34003400341434003400340034403465
:100980003434003400340034083414342234413414
:1009900014341434143414341434003441342234F0
:1009A00014340834023401345934093406343E34E2
:1009B00041345D3459344E347C34123411341234A1
:1009C0007C347F3449344934493436343E344134FC
:1009D0004134413422347F344134413441343E3453
:1009E0007F3449344934493441347F34093409343B
:1009F000093401343E3441344134513473347F344A
:100A00000834083408347F34003441347F344134AE
:100A100000342034403441343F3401347F340834CE
:100A20001434223441347F34403440344034403430
:100A30007F3402341C3402347F347F34043408346D
:100A400010347F343E344134413441343E347F34B9
:100A500009340934093406343E34413451342134E4
:100A60005E347F3409341934293446342634493409
:100A7000493449343234033401347F34013403348B
:100A80003F344034403440343F341F342034403409
:100A900020341F343F344034383440343F346334DE
:100AA0001434083414346334033404347834043490
:100AB00003346134593449344D34433400347F3481
:100AC0004134413441340234043408341034203485
:100AD00000344134413441347F340434023401342D
:100AE0000234043440344034403440344034003420
:100AF0000334073408340034203454345434383444
:100B000040347F3428344434443438343834443422
:100B100044344434283438344434443428347F341E
:100B200038345434543454341834003408347E3453
:100B3000093402340C34523452344A343C347F3455
:100B40000834043404347834003444347D3440347C
:100B500000342034403440343D3400347F34103489
:100B6000283444340034003441347F344034003479
:100B70007C3404347834043478347C3408340434D9
:100B800004347834383444344434443438347C3491
:100B900018342434243418341834243424341834C5
:100BA0007C347C34083404340434083448345434F9
:100BB000543454342434043404343F34443424341A
:100BC0003C344034403420347C341C3420344034B1
:100BD00020341C343C344034303440343C344434CD
:100BE00028341034283444344C3450345034503485
:100BF0003C344434643454344C3444340034083485
:100C00003634413400340034003477340034003456
:100C100000344134363408340034023401340234B0
:100C20000434023438302000C4004408C8003708B7
:100C3000C5003608C400B60A0319B70A4408840080
:100C4000450885000008C6004608D200520803196E
:100C5000D52F253052060319382E34088600350862
:100C60008700520881000130B4070030B53D172ECF
:100C7000D001D101CF01412E4F150130B607003010
:100C8000B73D36088400370885000008303A03195C
:100C90003C2E4A2E36088400370885000008913122
:100CA0001D218631031CD12E2000D001D1010A3034
:100CB0002000A0000030A1005108A3005008A200AD
:100CC00092316722863120002108D1002008D0000F
:100CD00036088400370885000008D03EC400FF3085
:100CE00003180030C5004408D0074508D13D013045
:100CF000B6070030B73D3608840037088500000885
:100D000091311D218631031CD12E572E2000510810
:100D10004C02031D8D2E50084B020318942E4B08D5
:100D2000D0024C08D13B962ED001D101FF30D00724
:100D3000FF30D13D500A0319510A0319BD2E340862
:100D4000860035088700203081000130B40700306C
:100D5000B53D962E4908860087010108C400340875
:100D6000860035088700440881000130C40044082B
:100D7000C9070130B4070030B53D0130CB02003067
:100D8000CC3B4B0A031DAA2E4C0A0319172EAA2E80
:100D90005230C4004408C9000130CB000030CC0000
:100DA000862E20003708C5003608C400B60A03198D
:100DB000B70A44088400450885000008D200003ABC
:100DC0000319D52F643A0319E92E0D3A0319E92EB8
:100DD000C82E2000480886008701403FCD00413FD3
:100DE000CE000230C4004408C807CE1F002F0330D5
:100DF000C4004408CF04CD09CE09CD0A0319CE0A98
:100E0000D201D20A053052060319252F5208C40018
:100E1000C501C435C50D6130440784009830453D97
:100E20008500003FC600013FC70047084E02031D72
:100E30001B2F46084D02031C252F0130C400440817
:100E4000D20705305206031D062F5008510403191E
:100E5000312F4F0803390319312FFF30D007FF30EE
:100E6000D13D5208C400C501C41BC5034508803AE2
:100E7000C6005108803A4602031D402F5008440224
:100E800003184D2F20005208C400C501C41BC50320
:100E90004408D0024508D13B502F2000D001D10199
:100EA0004F1D732F4F0803390319602F3408860034
:100EB000350887002D3081000130B4070030B53D82
:100EC000500851040319972F34088600350887000D
:100ED000303081000130B4070030B53DFF30D0071D
:100EE000FF30D13D602F500851040319892F340879
:100EF000860035088700203081000130B4070030BB
:100F0000B53DFF30D007FF30D13D50085104031DDF
:100F1000772F4F0803390319972F340886003508B7
:100F200087002D3081000130B4070030B53D5208F4
:100F3000C4004408CA00FF30C4004408CA074A0A73
:100F40000319172E0A30AE000030AF004A08C40063
:100F5000C501C435C50D6130440784009830453D56
:100F60008500003FA600013FA7004E08A9004D08DC
:100F7000A80095313725863120002708B1002608C2
:100F8000B00094311724863120002E08303EC60070
:100F90004608D200340886003508870052088100D0
:100FA0000130B4070030B53D9B2F20003408860087
:100FB00035088700810108002000A800A901A90ABE
:100FC00021002018FD2F20142000A9012808031952
:100FD000ED2F2100A901A90AF32F02302000A7005C
:100FE00027082100A9009F31442787319F31C92755
:100FF00087310318FD2F9031932020002908080025
:101000009F313B2788312100A01D10289F31D02718
:101010008831031C10280F30F40074082100A90047
:1010200021002908F400F501F435F50D00307407AE
:1010300084009830753D8500013F8A00003F0A001A
:101040008831F60076082100A90008002000AC00D5
:101050002A30AB002B08B0000230AE000030AF00E9
:101060002E082F040319722820002C089731B2276C
:101070008831003A03193428D6302000A5001130F9
:10108000A6003030AB002B08A7009031E620883155
:1010900001302000A0000030A1002A3091319521BC
:1010A0008831A3302000A5001F30A600A701903191
:1010B000F32088319F318227883192313122883163
:1010C0002000AB002B08AD002D0303195D282D086F
:1010D00003197228FF30AE07FF30AF3D2E082F04F2
:1010E000031D3428300808007E1C78289731672FAC
:1010F00090312E20883103188728A4289F31E827B3
:1011000008009F31F02708009031052008002100D9
:101110003A082000A1002108A9001130A03E860055
:101120008701413F8A00403F0A008831013A031994
:101130008428033A03197E28013A03198128073AC3
:1011400003198428842808002100A0110230A03E41
:1011500086008701403F84008501810A00089F3195
:10116000A927883101302100A3020030A43B2308C5
:101170002404031DBD280630BE2803302000A20031
:101180000030A300220808002000A601A11FCF28DC
:10119000A009A109A00A0319A10AA601A60AA31F72
:1011A000DA28A209A309A20A0319A30A0130A4009C
:1011B0002408A606A701A80120082104031909296B
:1011C000A501A50AA11BEE280130A035A10D890BB0
:1011D000E5280130A4002408A507E2280130A7353E
:1011E000A80D890BEF2821082302031DF9282008E8
:1011F0002202031C00292008A2022108A33B271475
:101200000130A136A00C890B01290130A502031D74
:10121000EE28260803191129A709A809A70A031906
:10122000A80A2808A1002708A000080020004308F9
:10123000AF004208AE009231BF228931200044083D
:101240002E07CC0045082F3DCD00CE01CF01003048
:101250004302033003194202031C51294108B5001F
:101260004008B40095310325893120003408350445
:10127000031D3C2902303D290130CA000030CB005B
:101280004A08C6004B08C7000030C71BFF30C80023
:10129000C9004608CC024708CD3B4808CE3B490868
:1012A000CF3B0130C0020030C13B4108AF004008D5
:1012B000AE008A31342220002E08CC072F08CD3D05
:1012C0003008CE3D3108CF3D4F08C3004E08C20064
:1012D0004D08C1004C08C00008002000B5010330D3
:1012E00090315E20893107392000B300B401330802
:1012F0002200AC00200034082200AD002C08083881
:101300002000B3003308AE000330913182218931CF
:10131000003090315E2089312000B300B4013308E1
:101320002200A000200034082200A100403020004C
:10133000B3003308AE000730913182218931220099
:10134000200880382000B3003308AE00003091310F
:101350008221893120003508031DBB2903309031DB
:101360005E2089312000B3003308B5002030B3007F
:101370003308B505AA2922002C0808382000B3003C
:101380003308AE0003309131822108002000AA0109
:10139000A71FD729A409A509A609A709A40A031903
:1013A000A50A0319A60A0319A70AAA01AA0AA31FD4
:1013B000E429A009A109A209A309A00A0319A10A05
:1013C0000319A20A0319A30A2308220421042004F2
:1013D00003191D2AA901A90AA31BFA290130A03566
:1013E000A10DA20DA30D890BEF290130A80028083B
:1013F000A907EC2923082702031D082A2208260230
:10140000031D082A21082502031D082A200824029A
:10141000031C122A2008A4022108A53B2208A63B8F
:101420002308A73B0130A336A20CA10CA00C890B0A
:10143000132A0130A902031DFA292A0803192B2AAD
:10144000A409A509A609A709A40A0319A50A03194D
:10145000A60A0319A70A2708A3002608A200250840
:10146000A1002408A000080064302000A60000307D
:10147000A7002F08A9002E08A800953137258A312A
:1014800020002608B2002708B300B401B501B20954
:10149000B309B409B509B20A0319B30A0319B40AA6
:1014A0000319B50A9030A6000130A7002F08A90043
:1014B0002E08A800953137258A3120002608B6006D
:1014C0002708B700B801B9012F08BB002E08BA00E1
:1014D000BB36BA0CBB36BA0C3A08BC003B08BD00A0
:1014E000BE01BF012E08A0002F08A100A201A30188
:1014F0000030A7000030A6000130A5006D30A40028
:101500009431A12420002008BC072108BD3D2208F9
:10151000BE3D2308BF3D3C08B6073D08B73D3E0829
:10152000B83D3F08B93D3608B2073708B33D380823
:10153000B43D3908B53D3508B1003408B000330872
:10154000AF003208AE0008002000B701B80138082B
:101550002B02031DAD2A37082A02031C0800B9011B
:10156000BA0100303A020530031939020318102B72
:101570003708260786003808273D87000108E03E27
:10158000A000FF3003180030A1000530A200003099
:10159000A300923167228A31200039082007B50064
:1015A0003A08213DB60036088500350884003730FA
:1015B00084078430853D0008AC003808A100370856
:1015C000A0000530A2000030A300923167228A31CA
:1015D000200028082007AD002908213DAE00390869
:1015E0002D07AF003A082E3DB000B130B1002130D8
:1015F000B2002F083107B3003008323DB400330881
:101600008600340887002C0881000130B9070030BB
:10161000BA3D00303A02053003193902031CB82ADA
:101620000130B7070030B83DA72A00302000A000E5
:10163000A1000130A2000030A300530892314C22D7
:101640008B314C30963196268B312000D0005008DB
:10165000D3006430A0000030A10053080A3E860089
:101660008701403FA200413FA300973121278B31E2
:1016700020002008D0005008D200B3015208D0004A
:101680005008B40006309531A3258B31D0302000AE
:10169000D0005008B3005308083E860087010108B7
:1016A000013ED1005108B40005309531A3258B319E
:1016B0002000B301530886008701463FB400043080
:1016C0009531A3258B312000B30153088600870193
:1016D000423FB40001309531A3258B31803020008A
:1016E000D0005008B3005308860087010108D100DC
:1016F0005108B40000309531A3258B312000B3018F
:10170000530886008701443FB40002309531A32579
:1017100008002000191002302000A3004530A2006C
:10172000A930890B912BA20B912BA30B912B00328B
:101730002000191402302000A3004530A200A93077
:10174000890BA02BA20BA02BA30BA02B0032AE3039
:10175000903140208B31D530903140208B3180301A
:10176000903140208B31A830903140208B31273090
:10177000903140208B31A130903140208B31C830E6
:10178000903140208B314030903140208B31D3302C
:10179000903140208B31A430903140208B318D30FE
:1017A000903140208B311430903140208B31DA3031
:1017B000903140208B311230903140208B3181307C
:1017C000903140208B31AF30903140208B31D93077
:1017D000903140208B312530903140208B31DB30EF
:1017E000903140208B312030903140208B31A4301B
:1017F000903140208B31A630903140208B31AF307A
:101800009031402008002000AA01A31F142CA00939
:10181000A109A209A309A00A0319A10A0319A20A8E
:101820000319A30AAA01AA0AA71F252CA409A5091E
:10183000A609A709A40A0319A50A0319A60A0319E8
:10184000A70A0130A8002808AA060030AE00003020
:10185000AD000030AC000030AB00230822042104AE
:10186000200403196E2CA901A90AA31B432C0130E3
:10187000A035A10DA20DA30D890B382C0130A800B5
:101880002808A907352C0130AB35AC0DAD0DAE0DD8
:10189000890B442C23082702031D582C22082602FA
:1018A000031D582C21082502031D582C2008240252
:1018B000031C632C2008A4022108A53B2208A63B98
:1018C0002308A73B2B140130A336A20CA10CA00CBB
:1018D000890B642C0130A902031D432C2A0803192B
:1018E0007C2CAB09AC09AD09AE09AB0A0319AC0AF3
:1018F0000319AD0A0319AE0A2E08A3002D08A20091
:101900002C08A1002B08A000080091310E218C3179
:101910008B3189238C319331BF238C318B170B177B
:101920008D3108258C31200062082100E90020005B
:1019300061082100E800200060082100E700200085
:101940005F082100E600E630963196268C312000B3
:10195000EB006B082100E500E5302000B40000300A
:10196000B5002030B6009830B700210065080A3E67
:1019700086008701403F2000EB00413FEC006B08F0
:101980006C3EB80007306C3DB90021006508083E88
:1019900086008701403F2000ED00413FEE006D08CA
:1019A000013EBA0000306E3DBB0021006508063ED6
:1019B00086008701403F2000BC00413FBD00210060
:1019C0006508043E86008701403F2000BE00413F7D
:1019D000BF0021006508023E86008701403F2000CD
:1019E000C000413FC1002100650886008701403FDB
:1019F0002000C200413FC300863112268C31E53001
:101A00002000D3000030D400943172248C31902C0B
:101A100000302000A000A1001230A2000030A3007E
:101A2000D33092314C228D31FF302000E300630827
:101A3000B30006309231DE228D31643E2100DD009C
:101A4000003003180130DE001F302000E30063087F
:101A5000B30005309231DE228D31FF3E2100DB00E4
:101A6000FF3003180030DC003F302000E300630843
:101A7000B30004309231DE228D312000E400E50114
:101A800064082100D900200065082100DA003F30F9
:101A90002000E3006308B30002309231DE228D3172
:101AA0002000E400E50164082100D700200065085B
:101AB0002100D8007F302000E3006308B30001302C
:101AC0009231DE228D312000E400E501640821001E
:101AD000D500200065082100D6007F302000E300FB
:101AE0006308B30000309231DE228D312000E40023
:101AF000E50164082100D300200065082100D4001E
:101B0000D3308D318D2520005308E2005208E100CA
:101B10005108E0005008DF0008002000DE005E08E9
:101B20000A3E86008701403FD400413FD50055085A
:101B3000803AD60080305602031DA02D4630540254
:101B4000031CB62D20005E080A3E86008701403F38
:101B5000D400413FD5005508803AD6008030560267
:101B6000031DB42D8B305402031CBF2DFF30200009
:101B7000DD00FF30DC00FF30DB00FF30A42E200052
:101B80005E080A3E86008701403FD400413FD500F1
:101B900054086C3EC0000730553DC1005E08083E49
:101BA00086008701403FD600413FD7005608013EDE
:101BB000C2000030573DC3005E08063E8600870124
:101BC000403FC400413FC500893116218D312000BE
:101BD0004308DD004208DC004108DB004008DA0071
:101BE000B230C0000730C1000130C2000030C30075
:101BF0000130C4000030C500893116218D3120002C
:101C00004008DA024108DB3B4208DC3B4308DD3B8D
:101C10005E08043E86008701403FD400413FD50066
:101C20005408D6005508D7000030D71BFF30D80025
:101C3000D9005D08A3005C08A2005B08A1005A0857
:101C4000A0000030A7000030A6000030A50018302A
:101C5000A4009431A1248D3120002008D60721084A
:101C6000D73D2208D83D2308D93D5908DD00580842
:101C7000DC005708DB005608DA005E08023E8600EA
:101C80008701403FD400413FD5005408D600550895
:101C9000D7000030D71BFF30D800D9005D08A30063
:101CA0005C08A2005B08A1005A08A0000030A70051
:101CB0000030A6000030A5003C30A4009431A124DF
:101CC0008D3120002008D6072108D73D2208D83DB5
:101CD0002308D93D5908DD005808DC005708DB000F
:101CE0005608DA005E0886008701403FD400413F75
:101CF000D5005408D6005508D7000030D71BFF3058
:101D0000D800D9005D08A3005C08A2005B08A10010
:101D10005A08A0000030A7000030A6000030A5003F
:101D20003C30A4009431A12420002008D6072108CB
:101D3000D73D2208D83D2308D93D5908DD00580871
:101D4000DC005708DB005608DA005D08D3005C08A9
:101D5000D2005B08D1005A08D00008002000BA0069
:101D60003A0886008701403FBB00413FBC00423F2C
:101D7000BD00433FBE000030A3000030A200003091
:101D8000A1003C30A0003E08A7003D08A6003C088A
:101D9000A5003B08A4008931C6218E31200021080E
:101DA0002100C200200020082100C10000302000D6
:101DB000A3000030A2000030A1003C30A0003E088B
:101DC000A7003D08A6003C08A5003B08A4008C31F4
:101DD00003248E3120002308BE002208BD00210804
:101DE000BC002008BB000030A3000030A20000307F
:101DF000A1003C30A0003E08A7003D08A6003C081A
:101E0000A5003B08A4008931C6218E31200021089D
:101E10002100C400200020082100C3000030200061
:101E2000A3000030A2000030A1003C30A0003E081A
:101E3000A7003D08A6003C08A5003B08A4008C3183
:101E400003248E3120002308BE002208BD00210893
:101E5000BC002008BB000030A3000030A20000300E
:101E6000A1001830A0003E08A7003D08A6003C08CD
:101E7000A5003B08A4008931C6218E31200021082D
:101E80002100C600200020082100C50000302000ED
:101E9000A3000030A2000030A1001830A0003E08CE
:101EA000A7003D08A6003C08A5003B08A4008C3113
:101EB00003248E31200021082100C80020002008C2
:101EC0002100C70007302000A0000030A100210041
:101ED0004708043E2000A20000302100483D2000B9
:101EE000A300973121278E31200021082100CE0048
:101EF000200020082100CD004630CB000030CC006F
:101F00004C082000B50021004B082000B40095319A
:101F10006C258E3121004808803A2000B800350831
:101F2000803A3802031D972F340821004702031C12
:101F3000B12F21004C082000B50021004B082000E3
:101F4000B40095316C258E31200034082100C70281
:101F5000200035082100C83B0130CB070030CC3DC4
:101F6000802F21004C082000B50021004B082000E4
:101F7000B40095316C258E31200034080239B80048
:101F80003808BB0021004808D0004708CF00C9012D
:101F9000CA0121004A088500490884005530840799
:101FA0009830853D000820003B04B8003808BC008C
:101FB00021004808803A2000B90080303902031D12
:101FC000E42F3C0821004702031CF92F20003C08A5
:101FD000B800B90138082100C702200039082100E3
:101FE000C83B0130C9070030CA3D03102000BB0CBC
:101FF000C92F01302100C7070030C83DC13008009B
:1020000021002010AA010E3008007E1C09289F31F3
:102010006A2F9F314A27003008007E1C11289F310B
:102020006E2F9F317A27053008007E1C19289F31BA
:10203000722F9F317E270A3008007E1C21289F3195
:10204000762F9F317E2709300800623031008D00E5
:102050008F01910102309300920108002300110EBC
:10206000890C890C01392000A000200C08007E1C7E
:102070003B289031002821002010AA010E300800D2
:102080002000A1009611181121089031A9202000EC
:10209000961508007E1C4E289F318B2F2100A01121
:1020A0009F314D27043008002300901A08008F014B
:1020B00028309000910103308D0008002000B2000C
:1020C0003208B1003108AA006F308831262008009C
:1020D0002000A1009611181521089031A920200098
:1020E000961508007E1C76289F31BB2F9F31212733
:1020F00021002010AA010E3008007E1C81289F318B
:10210000C22F2100A01521359F31A92703300800D7
:102110002E000F1808002E000F1808000830890B39
:102120008F2800008B282100201C080000309031EF
:10213000882090319331EA23903193282000A30026
:102140002308B038A2002208A300230890314020C1
:1021500008002000A00023009A132000200823007C
:102160009600191CB128160808007E1CB9289F315A
:10217000D82F2100A0150314210D9F31A927053068
:1021800008006400800101310130FE020030FF3B95
:102190007F087E0403190034C228FE0012001E00CE
:1021A0000130FE020030FF3B7F087E04031900343B
:1021B000CE287608F1007508F00077082000A0000E
:1021C0002008F20000309231FE220800200026088C
:1021D000A1002508A0002708A8002808A2000030B8
:1021E00093314623080020002608A1002508A000FE
:1021F0002708A8002808A2000230933146230800CF
:10220000F3002100201D08007308F2007208A200EC
:102210007108A4007008A300201108009F31E02776
:1022200091319631542691319031252091319F3151
:102230009127913189316D2108002000A100A00172
:102240003A30210203182A2930302102031C2A299E
:10225000A001A00A200C08000230F0000030F100BC
:10226000200021089131002191310030F500F60065
:10227000F7019031D920043008000130F00000301F
:10228000F100200021089131002191310030F5004A
:10229000F600F7019031D920043008000130F00039
:1022A0000030F100200021089131002191310030EF
:1022B000F500F600F7019031D92002300800023015
:1022C000F0000030F100200021089131002191310F
:1022D0000030F500F600F7019031D92002300800F7
:1022E0002000A300A201231C79292008A1002108B5
:1022F000A2070310A00D0310A30C2308031D7329CC
:10230000220808002000B1003108AF002F08AA0001
:102310002E08B0003008AB006F309431D1249131D9
:10232000FA300032890B912908002000A300210017
:10233000201D080020002308A20022082100A2007E
:10234000200021082100A400200020082100A30073
:10235000201108007E1CAE2991312C29023020006A
:10236000A0000030A1002908913195219131003061
:102370002000A500A600A7019031E6200430080047
:102380007E1CC42991313D2901302000A00000307D
:10239000A100290891319521913100302000A5003C
:1023A000A600A7019031E620043008007E1CDA293F
:1023B00091314E2901302000A0000030A1002908F1
:1023C00091319521913100302000A500A600A70190
:1023D0009031E620023008007E1CF02991315F29FF
:1023E00002302000A0000030A10029089131952181
:1023F000913100302000A500A600A7019031E62011
:10240000023008002000A3002030A2002208A30709
:102410002308A2000430A236890B0B2A22081038A8
:10242000903140209231200023080F399031402014
:1024300008002000210886008701403FF000413F4E
:10244000F1002108023E8600870101089131002138
:1024500092310030F500F600F7019031D9200230BA
:1024600008002000A101A10A21002018492AA0107B
:10247000FF302000A00020082100A1009F313E274E
:1024800092319F31412721002A082000A000200816
:10249000A1002000210808002000A6002608A400B2
:1024A0002408A5000130A2020030A33B220A031930
:1024B000230A031908002008A400250886008701C4
:1024C000240881000130A4002408A507522A200016
:1024D000A401A501201C702A2208A4072308A53DF9
:1024E0000130A235A30D890B712A0130A136A00C51
:1024F000890B762A20082104031D6A2A2508A100D9
:102500002408A00008007E1C872A9231192A200086
:10251000290886008701403FA000413FA10029080B
:10252000023E8600870101089131952192310030E9
:102530002000A500A600A7019031E6200230080087
:1025400020002108A5002008A400240886002508F2
:10255000870001080319B12A0130A4070030A53D06
:10256000A52A2009A2002109A300A20A0319A30A8F
:1025700024082207A0002508233DA100080064309C
:102580002000A6000030A7002F08A1002E08A00000
:10259000F130A2000B30A30092316722923120006B
:1025A0002008413EA800F430213DA900953137258F
:1025B00020002708AF002608AE0008002000B70062
:1025C000370890315E20923120003305B400340882
:1025D000B8000F303805B4000A30B5003508A00047
:1025E00033083805B6000430B636890BF42A3608AD
:1025F0000F3991317021200034070800F400700871
:1026000071040319142B7435AB3E860087017008E2
:10261000C03F7108C13F7208F3007408B73E8600DE
:1026200087017308810008007435AB3E860087017E
:102630009730C03F1F30C13F7408B73E8600870106
:10264000810108002100A0110230F0007008AA00EA
:102650002F2B9F31662708009F316A270800210031
:102660003908F00070082000A1000F30A03E86005D
:102670008701413F8A00403F0A009331023A031923
:10268000292B013A0319292B2C2B08002000A40028
:102690002008210403195D2B2435AB3E86008701F9
:1026A0002008C03F2108C13F2208A3002408B73EEC
:1026B000860087012308810008002435AB3E860090
:1026C00087019730C03F1F30C13F2408B73E8600C6
:1026D00087018101080021002015782B9F31662792
:1026E00008009F313827033008009F316A2708000F
:1026F00021003708F00070082000A1000B30A03E38
:1027000086008701413F8A00403F0A009331013A29
:102710000319752B033A03196E2B013A03196E2B1B
:10272000073A0319712B752B08007E1C992B9331E6
:10273000222B2100A01102302000A000200821003F
:10274000AA00A82B9F31F827080090310520080027
:10275000210039082000A0002008A9000F30A03E69
:1027600086008701413F8A00403F0A009331023AC8
:102770000319A22B013A0319A22BA52B080016302E
:102780002000DD000030DE003530DB000030DC00F2
:10279000D901DA016330E3000030E4000830E100E1
:1027A0000030E2001C30DF000030E0005808CF00AD
:1027B0005708CE005608CD005508CC008B311523A4
:1027C000933107302000D4007D30890BE52BD40BEA
:1027D000E52B08007E1CEE2B883100289F313E2718
:1027E00093312100A01DFF2B90312E209331031C2B
:1027F000FF2B0F302000A40024082100A900210095
:1028000029082000A400A501A435A50D0030240747
:1028100084009830253D8500013F8A00003F0A0072
:1028200094312000A60026082100A90008002000FD
:102830002E082F0403193F2CB301B30AAF1B2A2C17
:102840000130AE35AF0D890B212C0130B2003208BA
:10285000B3071E2C2F083102031D302C2E08300226
:10286000031C362C2E08B0022F08B13B0130AF36C6
:10287000AE0C890B372C0130B302031D2A2C310812
:10288000AF003008AE0008007E1C482C93316B2B43
:1028900021002015552C9F31F82708009F31532720
:1028A000033008009031052008002100370820007F
:1028B000A0002008A9000B30A03E86008701413F00
:1028C0008A00403F0A009431013A0319522C033A1E
:1028D00003194B2C013A03194B2C073A03194E2CC0
:1028E000522C080020005408A1005308A000923187
:1028F000A022943120002108D6002008D5008C3079
:10290000B4002330B5005408B7005308B600863130
:10291000122694318C302000A6002330A70000300E
:10292000A800A9005608AB005508AA008A31A422C5
:102930009431B1302000A4002130A5009531DC2570
:10294000080000302000AB000030AA000030A900D1
:102950000030A800201CB42C2408A8072508A93D95
:102960002608AA3D2708AB3D0130A435A50DA60DCC
:10297000A70D890BB52C0130A336A20CA10CA00C1D
:10298000890BBC2C2308220421042004031DAA2C3B
:102990002B08A3002A08A2002908A1002808A000EB
:1029A00008002000AD0020002D089731B227943197
:1029B000003A0319D32CC0302000A5001130A60026
:1029C0002B30AC002C08A7009031E6209431013068
:1029D0002000A0000030A1002A30913195219431CF
:1029E000A3302000A5001F30A600A7019031F320DE
:1029F00094319F3182279431923131229431013ABE
:102A0000031D0800FC2C2000B801B80A9030AE006D
:102A10000130AF003508B1003408B00094311724FC
:102A2000953120002E082F0403192F2D0330340573
:102A3000B60000303505B70036083704031D2E2DCB
:102A40006430AE000030AF003508B1003408B0008B
:102A50009431172420002E082F040319B8013808D8
:102A6000B600B7013608B4003708B50008002000EA
:102A7000AC01AD01260827040319672DAB01AB0A91
:102A8000A71B4C2D0130A635A70D890B432D013016
:102A9000AA002A08AB07402D0130AC35AD0D890BDB
:102AA0004D2D27082902031D572D26082802031C37
:102AB0005E2D2608A8022708A93B2C140130A73652
:102AC000A60C890B5F2D0130AB02031D4C2D2D0888
:102AD000A7002C08A6000800033020003405B6002B
:102AE00000303505B70036083704031D992D6430D2
:102AF000AE000030AF003508B1003408B0009431AA
:102B00001724953120002E082F04031D9E2D903090
:102B1000AE000130AF0034082C3EB0000130353D2E
:102B2000B10094311724953120002E082F04031989
:102B30009E2D6D30B4000130B50008006E30B40039
:102B40000130B50008002000BC003C0890315E2038
:102B5000953120003305B5003508BB000A30A000D0
:102B60000030A1003408B500B6013508A2003608CF
:102B7000A3008831C420953120002008B70004301C
:102B8000B735890BC02D0A30A0000030A1003408F1
:102B9000B800B9013808A2003908A30097312127ED
:102BA00095312000200837043B04BA003A08AE00F3
:102BB0003C089131822108002000A801A9010030C1
:102BC000290205300319280203180800280890314B
:102BD0009E20953100309231022295312000A601CD
:102BE000A701003027026030031926020318102EB7
:102BF000240884002508850000089031682095315C
:102C000001302000A4070030A53D0130A6070030A8
:102C1000A73D00302702603003192602031CF82D5F
:102C20000130A8070030A93DDF2D9F3135279631AF
:102C3000F000210022088600870170088100013021
:102C4000F0007008A2070130A3020030A43B230863
:102C5000240403192F2E9F31562705300800201514
:102C6000372E9F31762708009F31722708002100F8
:102C70003708F00070082000A1000B30A03E86004D
:102C80008701413F8A00403F0A009631013A03190B
:102C9000342E033A0319312E013A0319312E073A23
:102CA0000319342E342E080020009A0199010830AF
:102CB00096009701980107309500F7309100F530A4
:102CC0009200FB309300FE309400FE303E00D900AD
:102CD000C330CE00E130C3000730E400F730B80065
:102CE000DA01E501C401B901CF01E601BA01C5016C
:102CF000D001DB013D004508E0391338C500460826
:102D0000E0391438C60016303E0099001430A30094
:102D10001530A40017309B003D004808E039093801
:102D2000C8004908E0390A38C90008002000CB0073
:102D30004B0886008701403FBF00413FC000423F33
:102D4000C100433FC2007808A0007908A100890DA6
:102D5000893B8909A200A3000030A7000030A6002B
:102D60000030A5003C30A4009431A124963120000D
:102D70002009C3002109C4002209C5002309C60097
:102D8000C30A0319C40A0319C50A0319C60A43086A
:102D9000BF074408C03D4508C13D4608C23D420842
:102DA000CA004108C9004008C8003F08C7004730B2
:102DB0008E31AE2608007E1CDF2E9631152E9F31F7
:102DC000502796312000A0002100220886008701AC
:102DD0002000200881000130A00020082100A20767
:102DE0000130A3020030A43B230824040319FC2E65
:102DF0009F317A27053008002015042F90311D20BF
:102E00000800903115200800210037082000A0009C
:102E10002008A9000B30A03E86008701413F8A00B0
:102E2000403F0A009731013A0319012F033A031971
:102E3000FE2E013A0319FE2E073A0319012F012F26
:102E400008002000A601A31F2C2FA209A309A20A93
:102E50000319A30AA601A60AA11F332FA009A109DD
:102E6000A00A0319A10A2008210403195A2FA50159
:102E7000A50AA11B452F0130A035A10D890B3C2FC0
:102E80000130A4002408A507392F21082302031DBF
:102E90004B2F20082202031C512F2008A2022108D8
:102EA000A33B0130A136A00C890B522F0130A502A3
:102EB000031D452F26080319622FA209A309A20AA0
:102EC0000319A30A2308A1002208A00008009F31CB
:102ED000D02797310318762F932F9F315E27080054
:102EE0009F31622708009F316A27080021003A08B5
:102EF000F10071082000A1001130A03E860087017A
:102F0000413F8A00403F0A009731013A0319732F6D
:102F1000033A03196D2F013A0319702F073A031969
:102F2000732F732F08002100A0110230A03E8600ED
:102F30008701403F84008501810A00089F31862770
:102F4000973101302100A3020030A43B2308240460
:102F5000031DAC2F0630AD2F0330F2000030F3001C
:102F6000720808002000A300A401A40A2100A018F0
:102F7000FD2F20002308A20022082100A10020101C
:102F8000A014A0110E302000A20022082100A900E8
:102F9000F430A7000130A80020159730AB001F3097
:102FA000AC00B7019730AD001F30AE00B8019730CC
:102FB000AF001F30B000B9019730B1001F30B20030
:102FC000BA019D30B3001F30B400BB0190315420D2
:102FD00097319F313E27973129302000A0001F30C4
:102FE000A1009F31AF279731EA302000A0001330B5
:102FF000A1009F31B5272000A4012000240808006B
:1030000037341034B53410347D341034743408340B
:10301000DB3416344A34103444341434E8341F3466
:10302000F0341F34F8341F34053410340D341034A8
:10303000153410341D341034723410349534133474
:1030400025343034343464342D342534303432343F
:1030500064342D342534303432346434203425340F
:103060003034323464343A342534303432346434D5
:103070003A3425343034323464340A34003453342E
:1030800075346E344D346F346E3454347534653465
:103090005734653464345434683475344634723487
:1030A000693453346134743400341F341C341F3495
:1030B0001E341F341E341F341F341E341F341E347C
:1030C0001F34013400340A34003464340034E834EA
:0630D00003341034273424
:103E40000800080001300800053008002E008F101F
:103E500008009F3126270800230091140800230042
:103E60001115080023009115080023000C08080014
:103E70002E000F1408002E000F1008002E000F1047
:103E800008002E0019100800230011140800230058
:103E90009114080023001115080023009115080053
:103EA00023000C0808002E000F14080023009112B4
:103EB0001116080023009116111608009F312C27B7
:103EC000013008009F312C27023008009F312C2739
:103ED000013008009F312F27003008009F315627FE
:103EE000053008009F315A270A3008009F315A27B1
:103EF00009300800230091121116080023009116C2
:103F00001116080000308731DC270800F000700827
:103F100023008C0008002100A0119F3132270430BB
:103F200008002300990130309A00970108007E1C98
:103F30009B2F9F31222F013008007E1CA12F9F3123
:103F4000242F053008007E1CA72F80310228033063
:103F500008002000A000200823008C00080020009A
:103F60002108FD002008FC00080020002108FB00BB
:103F70002008FA0008009F31202721002010AA0104
:103F80000E3008002100A01521359F31862703300F
:103F900008002E00190801392000A000200C08009C
:103FA0002300110E890C890C0139F000700C0800F7
:103FB0002100A0150314210D9F318627053008002C
:103FC0002F0096019701980199019A019B01080021
:103FD0007E1CEC2F9F315E2F9F3147270130080058
:103FE0007E1CF42F9F31622F9F314727023008003B
:103FF0007E1CFC2F9F31662F9F3147270130080020
:020000040001F9
:0A000E00EC3FFF3F9F3FFF3FFF3F25
:00000001FF
