:1000000080312228033008007E14803120007F08D0
:10001000F7000B1F1D282E0099188F1C15287D082E
:100020008A007C080A0080311D2819180F1C1D2821
:100030007B088A007A080A00803177082000FF00D8
:100040007E100900803124286E30840082308500C3
:10005000B1308600213087000130FF00DB30903165
:100060001E2080312A30840090308500E4308600E4
:10007000003087000030FF000C3090311E208031AE
:100080008C308400233085006430FE000030FF0097
:10009000903112208031FA01FB01FC01FD01EA01DF
:1000A000EB01EC01ED01EE01EF01C73084000030FF
:1000B00085001D30FE000030FF009031122080319D
:1000C00020308400013085003B30FE000030FF000E
:1000D000903112207E1020008C31A02C003400348E
:1000E0000034003400340034003400340034003470
:1000F0000034003400340034003400340034003460
:10010000003400340034003400340034003400344F
:10011000003400340034003400340034003400343F
:1004900000344A3461346E344634653462344D3449
:1004A000613472344134703472344D34613479348F
:1004B0004A3475346E344A3475346C34413475348E
:1004C00067345334653470344F34633474344E3489
:1004D0006F34763444346534633400343F3440340C
:1004E000383440343F343834543454345434183469
:1004F000003441347F34403400343834443444349C
:1005000044342834383444344434443438347C3427
:10051000043478340434783438345434543454340F
:100520001834003400340034003400340034003413
:100530000034003400347F344134413441343E349B
:10054000003444347D3440340034003408347E3484
:1005500009340234003408347E34093402343C3423
:100560004034403420347C3448345434543454348B
:100570002434383454345434543418347C340834E7
:1005800004340434083400340034003400340034BB
:1005900000340034003400340034003400340034BB
:1005A00000340034003400340034003400340034AB
:1005B000003400340034003400340034003400349B
:1005C000003400340034003400340034003400348B
:1008A0005F3400340034003407340034073400343B
:1008B00014347F3414347F34143424342A347F3491
:1008C0002A34123423341334083464346234363412
:1008D0004934563420345034003408340734033457
:1008E000003400341C3422344134003400344134A8
:1008F00022341C3400342A341C347F341C342A340F
:10090000083408343E340834083400340034703479
:1009100030340034083408340834083408340034DF
:10092000003460346034003420341034083404342B
:1009300002343E345134493445343E340034423478
:100940007F344034003472344934493449344634B5
:100950002134413449344D3433341834143412348E
:100960007F341034273445344534453439343C34ED
:100970004A3449344934313441342134113409344E
:1009800007343634493449344934363446344934EA
:10099000493429341E340034003414340034003413
:1009A0000034403434340034003400340834143417
:1009B00022344134143414341434143414340034D0
:1009C00041342234143408340234013459340934A3
:1009D00006343E3441345D3459344E347C34123460
:1009E000113412347C347F34493449344934363438
:1009F0003E3441344134413422347F344134413433
:100A000041343E347F3449344934493441347F34AD
:100A100009340934093401343E3441344134513409
:100A200073347F340834083408347F34003441345C
:100A30007F34413400342034403441343F34013475
:100A40007F3408341434223441347F344034403409
:100A5000403440347F3402341C3402347F347F34D9
:100A60000434083410347F343E344134413441344A
:100A70003E347F3409340934093406343E34413479
:100A8000513421345E347F340934193429344634E6
:100A900026344934493449343234033401347F3400
:100AA000013403343F344034403440343F341F3445
:100AB0002034403420341F343F3440343834403400
:100AC0003F3463341434083414346334033404344A
:100AD0007834043403346134593449344D34433464
:100AE00000347F3441344134413402340434083416
:100AF0001034203400344134413441347F340434E0
:100B0000023401340234043440344034403440343C
:100B1000403400340334073408340034203454346F
:100B20005434383440347F342834443444343834F2
:100B30003834443444344434283438344434443429
:100B400028347F3438345434543454341834003412
:100B500008347E34093402340C34523452344A346A
:100B60003C347F340834043404347834003444345E
:100B70007D34403400342034403440343D3400343B
:100B80007F341034283444340034003441347F340A
:100B9000403400347C3404347834043478347C3485
:100BA0000834043404347834383444344434443419
:100BB00038347C341834243424341834183424342D
:100BC000243418347C347C34083404340434083439
:100BD00048345434543454342434043404343F34C6
:100BE000443424343C344034403420347C341C3489
:100BF0002034403420341C343C34403430344034CD
:100C00003C34443428341034283444344C34503484
:100C1000503450343C344434643454344C344434CC
:100C2000003408343634413400340034003477342E
:100C30000034003400344134363408340034023493
:100C4000013402340434023438302000C400440833
:100C5000C8003708C5003608C400B60A0319B70A29
:100C600044088400450885000008C6004608D200F4
:100C700052080319E72F2530520603194A2E34086B
:100C8000860035088700520881000130B407003023
:100C9000B53D292ED001D101CF01532E4F15013082
:100CA000B6070030B73D36088400370885000008D5
:100CB000303A03194E2E5C2E360884003708850022
:100CC000000890316D208631031CE32E2000D001F6
:100CD000D1010A302000A0000030A1005108A3007B
:100CE0005008A20091319E21863120002108D100B8
:100CF0002008D00036088400370885000008D03E60
:100D0000C400FF3003180030C5004408D007450870
:100D1000D13D0130B6070030B73D360884003708B2
:100D20008500000890316D208631031CE32E692E6A
:100D3000200051084C02031D9F2E50084B0203183F
:100D4000A62E4B08D0024C08D13BA82ED001D101D1
:100D5000FF30D007FF30D13D500A0319510A031963
:100D6000CF2E3408860035088700203081000130FE
:100D7000B4070030B53DA82E490886008701010858
:100D8000C40034088600350887004408810001301B
:100D9000C4004408C9070130B4070030B53D013034
:100DA000CB020030CC3B4B0A031DBC2E4C0A03196E
:100DB000292EBC2E5230C4004408C9000130CB009B
:100DC0000030CC00982E20003708C5003608C4003B
:100DD000B60A0319B70A44088400450885000008CC
:100DE000D200003A0319E72F643A0319FB2E0D3A9B
:100DF0000319FB2EDA2E2000480886008701403FA9
:100E0000CD00413FCE000230C4004408C807CE1FC9
:100E1000122F0330C4004408CF04CD09CE09CD0AF7
:100E20000319CE0AD201D20A053052060319372F10
:100E30005208C400C501C435C50D613044078400A3
:100E40009830453D8500003FC600013FC700470878
:100E50004E02031D2D2F46084D02031C372F013073
:100E6000C4004408D20705305206031D182F50084D
:100E700051040319432F4F0803390319432FFF303F
:100E8000D007FF30D13D5208C400C501C41BC503C3
:100E90004508803AC6005108803A4602031D522F89
:100EA0005008440203185F2F20005208C400C501F7
:100EB000C41BC5034408D0024508D13B622F200063
:100EC000D001D1014F1D852F4F0803390319722F0F
:100ED00034088600350887002D3081000130B407C2
:100EE0000030B53D500851040319A92F340886007D
:100EF00035088700303081000130B4070030B53D3F
:100F0000FF30D007FF30D13D722F50085104031934
:100F10009B2F34088600350887002030810001307F
:100F2000B4070030B53DFF30D007FF30D13D500849
:100F30005104031D892F4F0803390319A92F3408C1
:100F40008600350887002D3081000130B40700305D
:100F5000B53D5208C4004408CA00FF30C40044082C
:100F6000CA074A0A0319292E0A30AE000030AF0022
:100F70004A08C400C501C435C50D6130440784006A
:100F80009830453D8500003FA600013FA7004E0870
:100F9000A9004D08A80094318B2486312000270831
:100FA000B1002608B00093316B23863120002E0853
:100FB000303EC6004608D200340886003508870057
:100FC000520881000130B4070030B53DAD2F20003C
:100FD0003408860035088700810108002000A3003E
:100FE000A201231CF72F2008A1002108A20703104B
:100FF000A00D0310A30C2308031DF12F22080800E5
:101000000530080020009A019901083096009701E8
:10101000980107309500F7309100F5309200FB30D1
:101020009300FE309400FE303E00D900C330CE0065
:10103000E130C3000730E400F730B800DA01E50121
:10104000C401B901CF01E601BA01C501D001DB013C
:101050003D004508E0391338C5004608E03914382A
:10106000C60016303E0099001430A3001530A400CD
:1010700017309B003D004808E0390938C80049088E
:10108000E0390A38C900080020004308AF004208D0
:10109000AE009131F6218831200044082E07CC00A3
:1010A00045082F3DCD00CE01CF0100304302033073
:1010B00003194202031C7F284108B5004008B40010
:1010C000943157248831200034083504031D6A28E0
:1010D00002306B280130CA000030CB004A08C6003D
:1010E0004B08C7000030C71BFF30C800C9004608C6
:1010F000CC024708CD3B4808CE3B4908CF3B0130E6
:10110000C0020030C13B4108AF004008AE00893149
:10111000BB2120002E08CC072F08CD3D3008CE3D46
:101120003108CF3D4F08C3004E08C2004D08C10032
:101130004C08C00008002000AF0105302F02031842
:10114000C4282F089F31B1278831003091315321B5
:1011500088312000AC0160302C020318BC2800301C
:101160009F317F27883101302000AA002A08AC0770
:1011700060302C02031CAF280130AA002A08AF07F8
:1011800005302F02031CA128AD01AE012E08803AC4
:10119000AA0081302A02031DCF2890302D020318A7
:1011A000EC28B1302000AA002130AB002D082A071E
:1011B00086002E082B3D870081010130AD070030ED
:1011C000AE3D2E08803AAA0081302A02031DEA288B
:1011D00090302D02031CD1286E302000A4008030F6
:1011E000A5009431F72408002000B50103309F3199
:1011F000A727883107392000B300B4013308220043
:10120000AC00200034082200AD002C080838200073
:10121000B3003308AE0003309031BC208831003079
:101220009F31A72788312000B300B4013308220082
:10123000A000200034082200A10040302000B300AC
:101240003308AE0007309031BC20883122002008DE
:1012500080382000B3003308AE0000309031BC204D
:10126000883120003508031D422903309F31A7270C
:1012700088312000B3003308B5002030B3003308B4
:10128000B505312922002C0808382000B3003308A6
:10129000AE0003309031BC2008002000AA01A71F37
:1012A0005E29A409A509A609A709A40A0319A50A84
:1012B0000319A60A0319A70AAA01AA0AA31F6B29E0
:1012C000A009A109A209A309A00A0319A10A0319E7
:1012D000A20A0319A30A23082204210420040319E3
:1012E000A429A901A90AA31B81290130A035A10DB8
:1012F000A20DA30D890B76290130A8002808A907A3
:10130000732923082702031D8F2922082602031DA3
:101310008F2921082502031D8F2920082402031C80
:1013200099292008A4022108A53B2208A63B2308EE
:10133000A73B0130A336A20CA10CA00C890B9A2963
:101340000130A902031D81292A080319B229A40921
:10135000A509A609A709A40A0319A50A0319A60A3B
:101360000319A70A2708A3002608A2002508A10040
:101370002408A000080064302000A6000030A70068
:101380002F08A9002E08A80094318B248931200051
:101390002608B2002708B300B401B501B209B309A9
:1013A000B409B509B20A0319B30A0319B40A031937
:1013B000B50A9030A6000130A7002F08A9002E081A
:1013C000A80094318B24893120002608B600270814
:1013D000B700B801B9012F08BB002E08BA00BB3610
:1013E000BA0CBB36BA0C3A08BC003B08BD00BE01C3
:1013F000BF012E08A0002F08A100A201A301003008
:10140000A7000030A6000130A5006D30A400933184
:10141000F52320002008BC072108BD3D2208BE3D61
:101420002308BF3D3C08B6073D08B73D3E08B83D20
:101430003F08B93D3608B2073708B33D3808B43D18
:101440003908B53D3508B1003408B0003308AF00A5
:101450003208AE0008002000B701B80138082B029E
:10146000031D342A37082A02031C0800B901BA01F7
:1014700000303A020530031939020318972A370859
:10148000260786003808273D87000108E03EA000B7
:10149000FF3003180030A1000530A2000030A30087
:1014A00091319E218A31200039082007B5003A0881
:1014B000213DB60036088500350884004930840790
:1014C0008430853D0008AC003808A1003708A00032
:1014D0000530A2000030A30091319E218A31200006
:1014E00028082007AD002908213DAE0039082D0746
:1014F000AF003A082E3DB000B130B1002130B2004B
:101500002F083107B3003008323DB400330886009D
:10151000340887002C0881000130B9070030BA3D3B
:1015200000303A02053003193902031C3F2A01300A
:10153000B7070030B83D2E2A2000191002302000D5
:10154000A3004530A200A930890BA42AA20BA42A2B
:10155000A30BA42A00322000191402302000A3009B
:101560004530A200A930890BB32AA20BB32AA30BE2
:10157000B32A0032AE309F3189278A31D5309F316E
:1015800089278A3180309F3189278A31A8309F315D
:1015900089278A3127309F3189278A31A1309F31AD
:1015A00089278A31C8309F3189278A3140309F315D
:1015B00089278A31D3309F3189278A31A4309F31DE
:1015C00089278A318D309F3189278A3114309F31A4
:1015D00089278A31DA309F3189278A3112309F3149
:1015E00089278A3181309F3189278A31AF309F31F5
:1015F00089278A31D9309F3189278A3125309F3117
:1016000089278A31DB309F3189278A3120309F3109
:1016100089278A31A4309F3189278A31A6309F31AA
:1016200089278A31AF309F3189270800200053086D
:10163000A0000130A1000030A200A3000130A400EE
:101640000030A50091316A218B314C309531A725AE
:101650008B312000D0005008D3006430A00000304F
:10166000A10053080A3E860001308700403FA200D7
:10167000413FA300963132268B3120002008D00054
:101680005008D200B3015208D0005008B400063010
:10169000953130258B31D0302000D0005008B30078
:1016A0005308083E8600013087000108013ED10042
:1016B0005108B4000530953130258B312000B3013D
:1016C00053088600013087000130463FB4000430E3
:1016D000953130258B312000B3015308860001304D
:1016E00087000130423FB4000130953130258B3105
:1016F00080302000D0005008B3005308860001302D
:1017000087000108D1005108B40000309531302520
:101710008B312000B301530886000130870001306F
:10172000443FB40002309531302508002000AA0162
:10173000A31FA72BA009A109A209A309A00A0319A5
:10174000A10A0319A20A0319A30AAA01AA0AA71F38
:10175000B82BA409A509A609A709A40A0319A50A73
:101760000319A60A0319A70A0130A8002808AA0627
:101770000030AE000030AD000030AC000030AB00F7
:1017800023082204210420040319012CA901A90A19
:10179000A31BD62B0130A035A10DA20DA30D890BE3
:1017A000CB2B0130A8002808A907C82B0130AB3586
:1017B000AC0DAD0DAE0D890BD72B23082702031DF1
:1017C000EB2B22082602031DEB2B21082502031D0B
:1017D000EB2B20082402031CF62B2008A40221086E
:1017E000A53B2208A63B2308A73B2B140130A336B8
:1017F000A20CA10CA00C890BF72B0130A902031D30
:10180000D62B2A0803190F2CAB09AC09AD09AE0978
:10181000AB0A0319AC0A0319AD0A0319AE0A2E0864
:10182000A3002D08A2002C08A1002B08A00008008E
:10183000A0302000A0000030A1000030A200A300D2
:101840001230A4000030A50091316A218C31FF30A4
:101850002000E3006308B3000630923115228C317A
:10186000643E2100AA00003003180130AB001F3095
:101870002000E3006308B3000530923115228C315B
:10188000FF3E2100A800FF3003180030A9003F30C0
:101890002000E3006308B3000430923115228C313C
:1018A0002000E400E50164082100A600200065088E
:1018B0002100A7003F302000E3006308B30002309E
:1018C000923115228C312000E400E50164082100EA
:1018D000A400200065082100A5007F302000E3005F
:1018E0006308B3000130923115228C312000E400EE
:1018F000E50164082100A200200065082100A30082
:101900007F302000E3006308B300003092311522DD
:101910008C312000E400E50164082100A0002000D3
:1019200065082100A100A0308D318D2520005308CD
:10193000E2005208E1005108E0005008DF00080012
:1019400090315E208C318A319C228C319E31682608
:101950008C31E430860000308700B23084000030E3
:1019600085000C302000E60016001A00E60BB42CAF
:1019700088319B208C31B2302000D3000030D4005D
:101980009331C6238C3102302000E7004530E60059
:10199000A930890BC92CE60BC92CE70BC92C0032E6
:1019A00088319B208C31210042082000A0000130AA
:1019B000A1000030A200A3000130A4000030A50067
:1019C00091316A218C3159302100C100A330C0000F
:1019D0003C30BF004430BE000030C6000030C500BF
:1019E0000030C4000030C300210041082000CF00B7
:1019F000210040082000CE0021003F082000CD003B
:101A000021003E082000CC008B3116238C3107309A
:101A10002000E6007D30890B0B2DE60B0B2D8C3161
:101A200018248C31200062082100C60020006108C3
:101A30002100C500200060082100C40020005F08CC
:101A40002100C300C3309531A7258C312000E6006A
:101A500066082100C200B2302000B4000030B5009A
:101A60002030B6009830B700210042080A3E8600B8
:101A700001308700403F2000E600413FE700660854
:101A80006C3EB8000730673DB90021004208083EAF
:101A9000860001308700403F2000E800413FE90018
:101AA0006808013EBA000030693DBB0021004208D1
:101AB000063E860001308700403F2000BC00413FC9
:101AC000BD0021004208043E860001308700403FEF
:101AD0002000BE00413FBF0021004208023E8600B8
:101AE00001308700403F2000C000413FC10021007D
:101AF0004208860001308700403F2000C200413F7D
:101B0000C300863124268C31B2302000D30000304F
:101B1000D4009331C6238C310F2D2000DE005E08E7
:101B20000A3E86008701403FD400413FD50055085A
:101B3000803AD60080305602031DA02D4630540254
:101B4000031CB62D20005E080A3E86008701403F38
:101B5000D400413FD5005508803AD6008030560267
:101B6000031DB42D8B305402031CBF2DFF30200009
:101B7000DD00FF30DC00FF30DB00FF30A42E200052
:101B80005E080A3E86008701403FD400413FD500F1
:101B900054086C3EC0000730553DC1005E08083E49
:101BA00086008701403FD600413FD7005608013EDE
:101BB000C2000030573DC3005E08063E8600870124
:101BC000403FC400413FC500883144208D31200092
:101BD0004308DD004208DC004108DB004008DA0071
:101BE000B230C0000730C1000130C2000030C30075
:101BF0000130C4000030C500883144208D31200000
:101C00004008DA024108DB3B4208DC3B4308DD3B8D
:101C10005E08043E86008701403FD400413FD50066
:101C20005408D6005508D7000030D71BFF30D80025
:101C3000D9005D08A3005C08A2005B08A1005A0857
:101C4000A0000030A7000030A6000030A50018302A
:101C5000A4009331F5238D3120002008D6072108F8
:101C6000D73D2208D83D2308D93D5908DD00580842
:101C7000DC005708DB005608DA005E08023E8600EA
:101C80008701403FD400413FD5005408D600550895
:101C9000D7000030D71BFF30D800D9005D08A30063
:101CA0005C08A2005B08A1005A08A0000030A70051
:101CB0000030A6000030A5003C30A4009331F5238D
:101CC0008D3120002008D6072108D73D2208D83DB5
:101CD0002308D93D5908DD005808DC005708DB000F
:101CE0005608DA005E0886008701403FD400413F75
:101CF000D5005408D6005508D7000030D71BFF3058
:101D0000D800D9005D08A3005C08A2005B08A10010
:101D10005A08A0000030A7000030A6000030A5003F
:101D20003C30A4009331F52320002008D607210879
:101D3000D73D2208D83D2308D93D5908DD00580871
:101D4000DC005708DB005608DA005D08D3005C08A9
:101D5000D2005B08D1005A08D00008002000BA0069
:101D60003A0886008701403FBB00413FBC00423F2C
:101D7000BD00433FBE000030A3000030A200003091
:101D8000A1003C30A0003E08A7003D08A6003C088A
:101D9000A5003B08A40089314D218E312000210887
:101DA0002200CA00200020082200C90000302000C4
:101DB000A3000030A2000030A1003C30A0003E088B
:101DC000A7003D08A6003C08A5003B08A4008B31F5
:101DD00096238E3120002308BE002208BD00210872
:101DE000BC002008BB000030A3000030A20000307F
:101DF000A1003C30A0003E08A7003D08A6003C081A
:101E0000A5003B08A40089314D218E312000210816
:101E10002200CC00200020082200CB00003020004F
:101E2000A3000030A2000030A1003C30A0003E081A
:101E3000A7003D08A6003C08A5003B08A4008B3184
:101E400096238E3120002308BE002208BD00210801
:101E5000BC002008BB000030A3000030A20000300E
:101E6000A1001830A0003E08A7003D08A6003C08CD
:101E7000A5003B08A40089314D218E3120002108A6
:101E80002200CE00200020082200CD0000302000DB
:101E9000A3000030A2000030A1001830A0003E08CE
:101EA000A7003D08A6003C08A5003B08A4008B3114
:101EB00096238E31200021082200D0002000200827
:101EC0002200CF0007302000A0000030A100220037
:101ED0004F08043E2000A20000302200503D2000A8
:101EE000A300963132268E31200021082200D60030
:101EF000200020082200D5004630D3000030D40056
:101F000054082000B500220053082000B40094318A
:101F1000C0248E3122005008803A2000B8003508D5
:101F2000803A3802031D972F340822004F02031C09
:101F3000B12F220054082000B500220053082000D1
:101F4000B4009431C0248E31200034082200CF0226
:101F5000200035082200D03B0130D3070030D43DAB
:101F6000802F220054082000B500220053082000D2
:101F7000B4009431C0248E31200034080239B800F6
:101F80003808BB0022005008D8004F08D700D10104
:101F9000D201220052088500510884005530840780
:101FA0009830853D000820003B04B8003808BC008C
:101FB00022005008803A2000B90080303902031D09
:101FC000E42F3C0822004F02031CF92F20003C089C
:101FD000B800B90138082200CF02200039082200D9
:101FE000D03B0130D1070030D23D03102000BB0CA4
:101FF000C92F01302200CF070030D03D4930080002
:1020000020002108FB002008FA0008007E1C0A2896
:102010009F311C2F2100C7150314480D9E31F32654
:10202000053008006400800101310130FE020030FB
:10203000FF3B7F087E04031900341328FE001200C2
:102040001E000130FE020030FF3B7F087E040319B2
:1020500000341F2841346C34613472346D342034C0
:1020600043346C346F3463346B34003420002608FE
:10207000A1002508A0002708A8002808A200003019
:102080009231A022080020002608A1002508A00007
:102090002708A8002808A20002309231A0220800D8
:1020A000F3002100471D08007308F2007208C90000
:1020B0007108CB007008CA00471108009F3124271F
:1020C00090318831022090319F31642790319E31C8
:1020D000DB2690318831F42008002000A100A00107
:1020E0003A30210203187A2830302102031C7A2862
:1020F000A001A00A200C08000230F0000030F1001E
:1021000079089031502090310030F500F600F70149
:102110009F31E827043008000130F0000030F10062
:1021200079089031502090310030F500F600F70129
:102130009F31E827043008000130F0000030F10042
:1021400079089031502090310030F500F600F70109
:102150009F31E827023008000230F0000030F10023
:1021600079089031502090310030F500F600F701E9
:102170009F31E827023008002000B1003108AF008D
:102180002F08AA002E08B0003008AB006F30943141
:1021900025249031FA300032890BCB28080020002A
:1021A000A3002100471D080020002308A2002208E8
:1021B0002100C900200021082100CB0020002008B8
:1021C0002100CA00471108007E1CE82890317C28B5
:1021D00002302000A0000030A10029089031CF205B
:1021E000903100302000A500A600A70190313620D4
:1021F000043008007E1CFE2890318C28013020001D
:10220000A0000030A10029089031CF20903100308B
:102210002000A500A600A701903136200430080058
:102220007E1C142990319C2801302000A000003031
:10223000A10029089031CF20913100302000A50065
:10224000A600A70190313620023008007E1C2A2902
:102250009031AC2802302000A0000030A1002908F5
:102260009031CF20913100302000A500A600A701B9
:102270009031362002300800790886008701403FFF
:10228000F000413FF1007908023E86008701010815
:102290009031502091310030F500F600F7019F3168
:1022A000E827023008002000A3002030A200220806
:1022B000A3072308A2000430A236890B5C29220858
:1022C00010389F3189279131200023080F399F3121
:1022D0008927080020002108A7002008A600013057
:1022E000A4020030A53B240A0319250A031908009B
:1022F0002608860027088700220881000130A607EB
:102300000030A73D6F292000A101A10A2100471834
:102310009B29C710FF302000A00020082100C80022
:102320009E31832691319E3186262100510820005E
:10233000A0002008A1002000210808002000A4011E
:10234000A501201CA7292208A4072308A53D0130C8
:10235000A235A30D890BA8290130A136A00C890B49
:10236000AD2920082104031DA1292508A100240866
:10237000A00008007E1CBE2991313C2920002908BC
:1023800086008701403FA000413FA1002908023E8E
:102390008600870101089031CF2091310030200064
:1023A000A500A600A70190313620023008002000C9
:1023B0002108A5002008A40024088600250887001D
:1023C00001080319E8290130A4070030A53DDC29E4
:1023D0002009A2002109A300A20A0319A30A2408C4
:1023E0002207A0002508233DA1000800643020003A
:1023F000A6000030A7002F08A1002E08A000F13091
:10240000A2000B30A30091319E21913120002008C1
:10241000413EA800F430213DA90094318B242000D6
:102420002708AF002608AE0008002000B7003708D4
:102430009F31A727923120003305B4003408B8003B
:102440000F303805B4000A30B5003508A000330855
:102450003805B6000430B636890B2B2A36080F39FA
:102460008731EE272000340708002100C711023011
:10247000F0007008D100422A9E31AB2608009E3140
:10248000AF26080021006008F0007008F9000F3046
:10249000C73E86008701413F8A00403F0A009231D3
:1024A000023A03193C2A013A03193C2A3F2A080040
:1024B000F4007008710403196E2A7435D23E860048
:1024C00087017008C03F7108C13F7208F3007408AB
:1024D000DE3E860087017308810008007435D23E15
:1024E00086008701E130C03F1E30C13F7408DE3EE8
:1024F00086008701810108002000A800A901A90A1F
:10250000210047189D2A47142000A9012808031913
:102510008D2A2100D001D00A932A02302000A70082
:1025200027082100D0009E31892692319F310D2746
:10253000923103189D2A9F31DD27200029080800C9
:102540002000A400200821040319B72A2435D23E14
:10255000860087012008C03F2108C13F2208A30050
:102560002408DE3E86008701230881000800243508
:10257000D23E86008701E130C03F1E30C13F2408B3
:10258000DE3E86008701810108009E31802692315F
:102590002100C71DD52A9F3114279231031CD52A4B
:1025A0000F30F40074082100D00021005008F4001E
:1025B000F501F435F50D0030740784009830753D51
:1025C0008500013F8A00003F0A009231F60076083C
:1025D0002100D000080021004715F82A9E31AB26C3
:1025E00008009E317D26033008009E31AF2608008A
:1025F00021005E08F0007008F9000B30C73E86002D
:102600008701413F8A00403F0A009331013A031994
:10261000F52A033A0319EE2A013A0319EE2A073A7A
:102620000319F12AF52A08007E1C182B9231352A4D
:102630002100C71102302000A00020082100D10095
:10264000272B9F313C2708009F3144270800210099
:1026500060082000A0002008A9000F30C73E8600B7
:102660008701413F8A00403F0A009331023A031933
:10267000212B013A0319212B242B08007E1C422B0D
:102680009231C52A9E31832693312100C71D532BD9
:102690009F316D279331031C532B0F302000A40072
:1026A00024082100D000210050082000A400A5012A
:1026B000A435A50D0030240784009830253D850001
:1026C000013F8A00003F0A0093312000A60026083F
:1026D0002100D000080020002E082F040319932B9E
:1026E000B301B30AAF1B7E2B0130AE35AF0D890BA2
:1026F000752B0130B2003208B307722B2F0831025C
:10270000031D842B2E083002031C8A2B2E08B002D6
:102710002F08B13B0130AF36AE0C890B8B2B01304B
:10272000B302031D7E2B3108AF003008AE00080055
:102730007E1C9C2B9231EB2A21004715A92B9F313F
:102740003C2708009E319826033008009F3144271B
:10275000080021005E082000A0002008A9000B301E
:10276000C73E86008701413F8A00403F0A009331FF
:10277000013A0319A62B033A03199F2B013A0319B7
:102780009F2B073A0319A22BA62B08002000540800
:10279000A1005308A0009131D721933120002108D6
:1027A000D6002008D5008C30B4002330B500540882
:1027B000B7005308B6008631242693318C302000B0
:1027C000A6002330A7000030A800A9005608AB00DF
:1027D0005508AA008A312B229331B1302000A40081
:1027E0002130A5009431F724080000302000AB0010
:1027F0000030AA000030A9000030A800201C082CDE
:102800002408A8072508A93D2608AA3D2708AB3DAE
:102810000130A435A50DA60DA70D890B092C01309B
:10282000A336A20CA10CA00C890B102C23082204A7
:1028300021042004031DFE2B2B08A3002A08A2005C
:102840002908A1002808A00008002000AD002000F1
:102850002D089631C2269431003A0319272CFA30FC
:102860002000A5001030A6002B30AC002C08A700DB
:1028700090313620943101302000A0000030A100BA
:102880002A309031CF209431ED302000A5001E3049
:10289000A600A7019031432094319E31C726943180
:1028A000913183219431013A031D0800502C2000FE
:1028B000B801B80A9030AE000130AF003508B10061
:1028C0003408B00093316B23943120002E082F047C
:1028D0000319832C03303405B60000303505B700EA
:1028E00036083704031D822C6430AE000030AF0080
:1028F0003508B1003408B00093316B2320002E0856
:102900002F040319B8013808B600B7013608B4001F
:102910003708B50008002000AB01AC0126082704E9
:102920000319BB2CAD01AD0AA71BA02C0130A635A5
:10293000A70D890B972C0130AA002A08AD07942C0B
:102940000130AB35AC0D890BA12C27082902031DE2
:10295000AB2C26082802031CB22C2608A802270844
:10296000A93B2B140130A736A60C890BB32C0130E0
:10297000AD02031DA02C2C08A7002B08A600080000
:10298000033020003405B60000303505B7003608A6
:102990003704031DED2C6430AE000030AF00350865
:1029A000B1003408B00093316B23943120002E081D
:1029B0002F04031DF22C9030AE000130AF0034081C
:1029C0002C3EB0000130353DB10093316B23943182
:1029D00020002E082F040319F22C6D30B4000130B2
:1029E000B50008006E30B4000130B50008002000CA
:1029F000A801A90100302902053003192802031893
:102A0000080028089F31B1279431003091315321BB
:102A100094312000A601A70100302702603003197D
:102A2000260203182B2D24088400250885000008A1
:102A30009F317F27943101302000A4070030A53D4D
:102A40000130A6070030A73D00302702603003198F
:102A50002602031C132D0130A8070030A93DFA2CD3
:102A60002000BC003C089F31A7279531200033058A
:102A7000B5003508BB000A30A0000030A1003408C2
:102A8000B500B6013508A2003608A3009731AE277D
:102A9000953120002008B7000430B735890B4D2D43
:102AA0000A30A0000030A1003408B800B90138088D
:102AB000A2003908A3009631322695312000200863
:102AC00037043B04BA003A08AE003C089031BC2001
:102AD00008009E317A269531F000210049088600D1
:102AE0008701700881000130F0007008C9070130CB
:102AF000CA020030CB3B4A084B040319832D9E3198
:102B00009B260530080047158B2D9E31BB260800FB
:102B10009E31B726080021005E08F0007008F90019
:102B20000B30C73E86008701413F8A00403F0A00C4
:102B30009531013A0319882D033A0319852D013A7D
:102B40000319852D073A0319882D882D08002000C8
:102B5000CB004B0886008701403FBF00413FC000CB
:102B6000423FC100433FC2006E08A0006F08A100B1
:102B7000890D893B8909A200A3000030A70000301D
:102B8000A6000030A5003C30A4009331F523953118
:102B900020002009C3002109C4002209C50023091F
:102BA000C600C30A0319C40A0319C50A0319C60AD1
:102BB0004308BF074408C03D4508C13D4608C23D23
:102BC0004208CA004108C9004008C8003F08C700C1
:102BD00047308E31AE2608007E1CF02D9531692DD0
:102BE0009E31952695312000A000210049088600DD
:102BF00087012000200881000130A000200821006A
:102C0000C9070130CA020030CB3B4A084B04031904
:102C10000D2E9E31BF26053008004715152E9F3119
:102C20005C2708009F315427080021005E0820001F
:102C3000A0002008A9000B30C73E86008701413F55
:102C40008A00403F0A009631013A0319122E033AD6
:102C500003190F2E013A03190F2E073A0319122EEA
:102C6000122E08002000A601A31F3D2EA209A309D1
:102C7000A20A0319A30AA601A60AA11F442EA009AD
:102C8000A109A00A0319A10A2008210403196B2E27
:102C9000A501A50AA11B562E0130A035A10D890B57
:102CA0004D2E0130A4002408A5074A2E2108230236
:102CB000031D5C2E20082202031C622E2008A202A3
:102CC0002108A33B0130A136A00C890B632E0130F3
:102CD000A502031D562E26080319732EA209A30967
:102CE000A20A0319A30A2308A1002208A0000800D1
:102CF0009F31142796310318872EA32E9E31A326C9
:102D000008009E31A72608009E31AF26080021004A
:102D10006108F1007108F9001130C73E8600870193
:102D2000413F8A00403F0A009631013A0319842E40
:102D3000033A03197E2E013A0319812E073A03192B
:102D4000842E842E08002100C7110230C73E860061
:102D50008701403F84008501810A00089E31CB260F
:102D6000963101302100CA020030CB3B4A084B04A7
:102D7000031DBC2E0630BD2E0330F2000030F300E0
:102D8000720808002000A300A401A40A2100C718AB
:102D90000D2F20002308A20022082100C8004710A0
:102DA000C714C7110E302000A20022082100D00055
:102DB000F430CE000130CF004715E130D2001E3094
:102DC000D300DE01E130D4001E30D500DF01E13058
:102DD000D6001E30D700E001E130D8001E30D90007
:102DE000E101E730DA001E30DB00E2019F319D2770
:102DF00096319E31832696316E302000A0001E3021
:102E0000A1009E31F92696313E302000A0001330FB
:102E1000A100903100202000A40120002408080017
:102E20002000AC002A30AB002B08B0000230AE000E
:102E30000030AF002E082F0403195C2F20002C084F
:102E40009631C2269731003A03191E2F1030200008
:102E5000A5001130A6003030AB002B08A700903140
:102E60003620973101302000A0000030A1002A3028
:102E70009031CF209731ED302000A5001E30A60004
:102E8000A7019031432097319E31C7269731913168
:102E9000832197312000AB002B08AD002D030319CF
:102EA000472F2D0803195C2FFF30AE07FF30AF3DD1
:102EB0002E082F04031D1E2F300808007E1C622FD1
:102EC0009631782E9F316D2797310318712F8E2FF1
:102ED0009F312C2708009F31342708009F31442759
:102EE0000800210061082000A1002108A90011307C
:102EF000C73E86008701413F8A00403F0A00973164
:102F0000013A03196E2F033A0319682F013A031986
:102F10006B2F073A03196E2F6E2F08002100C7117F
:102F20000230C73E86008701403F84008501810A48
:102F300000089E31F326973101302100CA0200308B
:102F4000CB3B4A084B04031DA72F0630A82F0330A4
:102F50002000A2000030A300220808002000A601E3
:102F6000A11FB92FA009A109A00A0319A10AA6014E
:102F7000A60AA31FC42FA209A309A20A0319A30A20
:102F80000130A4002408A606A701A80120082104F6
:102F90000319F32FA501A50AA11BD82F0130A035D5
:102FA000A10D890BCF2F0130A4002408A507CC2F39
:102FB0000130A735A80D890BD92F21082302031D45
:102FC000E32F20082202031CEA2F2008A202210876
:102FD000A33B27140130A136A00C890BEB2F013045
:102FE000A502031DD82F26080319FB2FA709A8093E
:102FF000A70A0319A80A2808A1002708A0000800AA
:1030000076341F3406341034C7341F345E3417341A
:10301000EC34153493341F34983413342C341F3467
:1030200034341F343C341F3444341F344C341F3484
:1030300054341F345C341F34BC341F341434133400
:1030400025343034343464342D342534303432343F
:1030500064342D342534303432346434203425340F
:103060003034323464343A342534303432346434D5
:103070003A3425343034323464340A34003453342E
:1030800075346E344D346F346E3454347534653465
:103090005734653464345434683475344634723487
:1030A000693453346134743400341F341C341F3495
:1030B0001E341F341E341F341F341E341F341E347C
:1030C0001F34013400340A34003464340034E834EA
:0630D00003341034273424
:103CCC00080008000800013008002E008F100800C2
:103CDC009E316B2608002300911408002300111557
:103CEC00080023009115080023000C0808002E0082
:103CFC000F1408002E000F1008002E000F100800E3
:103D0C002E00191008002300111408002300911430
:103D1C00080023001115080023009115080023004A
:103D2C000C0808002E000F14080023009112111625
:103D3C00080023009116111608009E3171260130DF
:103D4C0008009E317126023008009E317126013028
:103D5C0008009E317426003008009E319B260530E9
:103D6C0008009E319F260A3008009E319F2609309C
:103D7C000800230091121116080023009116111649
:103D8C000800003092317C220800F00070082300FB
:103D9C008C00080021004710D1010E3008002100D2
:103DAC00C7119E317726043008002300990130306A
:103DBC009A00970108007E1CE52E9E31692E013079
:103DCC0008007E1CEB2E88310028053008007E1C74
:103DDC00F12E80310228033008002000A0002008BA
:103DEC0023008C00080020002108FD002008FC00A6
:103DFC0008009E31662621004710D1010E300800C4
:103E0C002100C71548359E31CB26033008002E0003
:103E1C00190801392000A000200C08002300110E05
:103E2C00890C890C0139F000700C08002100C715B1
:103E3C000314480D9E31CB26053008002F00960147
:103E4C009701980199019A019B0108007E1C302F63
:103E5C009E31A32E9E318C26013008007E1C382FFB
:103E6C009E31A72E9E318C26023008007E1C402FDE
:103E7C009E31AB2E9E318C26013008007E1C482FC3
:103E8C009E31AF2E9E318F26003008007E1C502FA5
:103E9C009E31B32E9E31BF26053008007E1C582F54
:103EAC009E31B72E9E31C3260A3008007E1C602F2F
:103EBC009E31BB2E9E31C326093008006230310082
:103ECC008D008F01910102309300920108002300B4
:103EDC00110E890C890C01392000A000200C08005F
:103EEC007E1C7A2F9E31D02E21004710D1010E302E
:103EFC0008002000A1009611181521089F31F42705
:103F0C002000961508002000A10096111811210818
:103F1C009F31F4272000961508007E1C972F9E31A8
:103F2C00D52E2100C7119E319226043008002300A3
:103F3C00901A08008F0128309000910103308D00F9
:103F4C0008002000B2003208B1003108AA006F301E
:103F5C009731102708002000A3002308B038A200D6
:103F6C002208A30023089F31892708007E1CC02F3C
:103F7C009E31FF2E9E31672621004710D1010E3055
:103F8C0008007E1CCB2F9F31062F2100C71548350A
:103F9C009E31F326033008002E000F1808002E0067
:103FAC000F1808000830890BD92F0000D52F2100DD
:103FBC00471C080000309F31D2279F3193313E239C
:103FCC009F31DD2F7608F1007508F0007708F800B6
:103FDC007808F20000309231582208002000A0002E
:103FEC0023009A132000200823009600191CFC2F94
:043FFC00160808009B
:020000040001F9
:0A000E00EC3FFF3F9F3FFF3FFF3F25
:00000001FF
